:100000000C946C000C9494000C9494000C94940048
:100010000C9494000C9494000C9494000C94940010
:100020000C9494000C9494000C9494000C948F0500
:100030000C9494000C9494000C9494000C949400F0
:100040000C94DE0D0C9494000C94A30B0C94E60B12
:100050000C9494000C9494000C9494000C949400D0
:100060000C9476090C949400DB01560256024B0264
:1000700056025602E20156025602DB01EE0156021A
:100080003D0207025602560256025602DE010000E9
:100090000007000201000003040600000000000049
:1000A0000000010204081020408001020408102012
:1000B00001020408102004040404040404040202DD
:1000C00002020202030303030303000000002500F1
:1000D00028002B009508A90C11241FBECFEFD8E0F3
:1000E000DEBFCDBF15E0A0E0B1E0E8E1F3E202C081
:1000F00005900D92AA3AB107D9F727E0AAEAB5E030
:1001000001C01D92A137B207E1F710E0CCE6D0E0C4
:1001100004C02197FE010E94850ECA36D107C9F797
:100120000E94FC0A0C948A110C9400000E94EF03B8
:100130000E94E1030E94C9030E9465020E94A80078
:100140000C944F050E94CD000E94E1020C940D0416
:1001500018991BC010920701109208011092090112
:1001600010920A01109203011092040110920501ED
:10017000109206011092020181E080930101109219
:1001800000018093AA058093D10560E072EC81E0C4
:1001900090E00E94D5050C949206CF93DF930E94C5
:1001A0004806EC01892BB1F080910001882359F0B9
:1001B000BE018EEB96E00E94210D6BEF74E08EEB9A
:1001C00096E00E94210DCE010E949C07DF91CF9105
:1001D0000C94F105DF91CF9108956FE071E08EEB03
:1001E00096E00C94210DCF93DF938FB7F894C091D4
:1001F000D105D091C2058FBF63E173E08EEB96E02D
:100200000E94210D6BE373E08EEB96E00E94210DBE
:1002100062E573E08EEB96E00E94210D0E947A0564
:10022000AB01BC012AE030E08EEB96E00E94D10DDC
:1002300061E673E08EEB96E00E94210D6AE673E0C2
:100240008EEB96E00E94210D2AE030E040E157E27B
:1002500060E070E08EEB96E00E94D10D6BEF74E0F1
:100260008EEB96E00E94210DDD2319F066E873E025
:1002700002C062EA73E08EEB96E00E94210D6DEB06
:1002800073E08EEB96E00E94210D409103015091A6
:10029000040160910501709106012AE030E08EEBC7
:1002A00096E00E94D10D61E673E08EEB96E00E942D
:1002B000210D6CED73E08EEB96E00E94210D809194
:1002C000AA05882319F06FEF73E002C069E174E0BA
:1002D0008EEB96E00E94210DCC2319F062E374E0CE
:1002E00002C063E474E08EEB96E00E94210D65E5A8
:1002F00074E08EEB96E00E94210D40910701509131
:1003000008016091090170910A012AE030E08EEB4A
:1003100096E00E94D10D61E673E08EEB96E00E94BC
:10032000210D80910201882319F067E674E002C074
:100330006FE774E08EEB96E00E94210D8091010141
:10034000882319F068E974E002C06DEA74E08EEB6E
:1003500096E00E94210D63EC74E08EEB96E00E9423
:10036000210D4AE050E061E772E08EEB96E00E94DA
:10037000CA0D6BEF74E08EEB96E00E94210D67EEE4
:1003800074E08EEB96E0DF91CF910C94210D0F93EA
:100390001F93DC01EC910E2FEE0F110B220B330B90
:1003A0000F5311090331110508F080C00C5C1F4F79
:1003B000F8010C94850E0E94ED0002C00E94F3002B
:1003C00080E075C0442309F471C0672B19F41092C2
:1003D0000001F6CF81E080930001F2CF11968C915D
:1003E000843439F46EEF74E08EEB96E00E94210DB8
:1003F000E7CF8E3409F05AC01FB7F8940E94E1038A
:100400000E9471050E94EF030E94C90334C0442377
:1004100009F44CC011968C91893461F4CB01A0E0B1
:10042000B0E08093070190930801A0930901B09375
:100430000A01C6CF843549F4672B19F410920201E2
:10044000BFCF81E080930201BBCF8F3479F51FB716
:10045000F894672B71F00E9486056093CD05709328
:10046000CE058093CF059093D00581E08093D10590
:1004700002C01092D1051FBFA3CF4423B9F0CB0116
:10048000A0E0B0E08093030190930401A0930501E4
:10049000B093060195CF442349F0672B19F41092CD
:1004A00001018ECF81E0809301018ACF81E091E04C
:1004B00089271F910F910895EBEAF5E010821182D0
:1004C000128213821482158208950E94E7040E940A
:1004D0007A056093B1057093B2058093B30590934C
:1004E000B4051092C2051092B6051092B50510928F
:1004F000C1051092C0051092BF051092BE05109262
:10050000BD051092BC051092BB051092BA05109261
:10051000B9051092B8050C945C028091AB058093EC
:10052000C1058091AC058093C0054091AD0550E0B8
:100530005093BD054093BC052091AE0530E030934B
:10054000BB052093BA058091AF0590E09093B90563
:100550008093B8056091B00561FD04C071E07093AF
:10056000BF0502C01092BF0560FD04C071E070932A
:10057000BE0502C01092BE05E62FEC7070E1E79F49
:10058000F0011124542F44274E2B5F2B5093BD05AF
:100590004093BC05462F407374E0479FA00111248F
:1005A000322F2227242B352B3093BB052093BA05FD
:1005B000607C982F8827862B9093B9058093B80587
:1005C0000895CF92DF92EF92FF920F931F930E94B4
:1005D0007A052091B5053091B6052115310521F038
:1005E00021303105E9F17AC00091B1051091B205D1
:1005F0002091B3053091B4056B017C01C01AD10A7A
:10060000E20AF30A48EEC41643E0D406E104F1041A
:1006100008F464C06093B1057093B2058093B3058C
:100620009093B40542E050E06DE071E082E50E94F5
:10063000EB04882309F44CC042E050E06BE071E029
:1006400082E50E94EB04882309F442C081E0809394
:10065000C20581E090E09093B6058093B5052FC068
:100660000091B1051091B2052091B3053091B40508
:100670006B017C01C01AD10AE20AF30A009103015E
:10068000109104012091050130910601C016D10698
:10069000E206F30618F16093B1057093B2058093FA
:1006A000B3059093B4050E945C0246E06BEA75E0E6
:1006B00082E50E941705882359F00E948D0241E0CF
:1006C00050E067EB75E082E50E94EB04811106C003
:1006D0001092C2051092B6051092B5051F910F91A8
:1006E000FF90EF90DF90CF9008952FB7F89460932C
:1006F000C7057093C8058093C9059093CA052FBF9D
:1007000008958091C3059091C405A091C505B0914D
:10071000C605892B8A2B8B2B61F480E090E0A0E04A
:10072000B0E88093C3059093C405A093C505B0932A
:10073000C6054091C3055091C4056091C5057091EF
:10074000C6058091C7059091C805A091C905B091D3
:10075000CA0584239523A623B723892B8A2B8B2BA9
:1007600011F02D9A01C02D988091C3059091C40578
:10077000A091C505B091C605B695A79597958795A3
:100780008093C3059093C405A093C505B093C60597
:100790000895CF93CFB7F8941092C7051092C8056B
:1007A0001092C9051092CA051092C3051092C40593
:1007B0001092C5051092C6050E948103CFBFCF914C
:1007C00008958FB7F8941092D1051092CD0510922C
:1007D000CE051092CF051092D0058FBF089515BE9B
:1007E000259A87B18C6087B92D98289A4298439AA8
:1007F00008958091CB059091CC050196813722E038
:10080000920728F49093CC058093CB05089510921D
:10081000CC051092CB050C9481036F927F928F923E
:100820009F92AF92BF92CF92DF92EF92FF920F937F
:100830001F93CF93DF937FB6F8940E9486056B01D8
:100840007C01C091D105D091C205CC2389F14091A2
:10085000CD055091CE056091CF057091D005C4169D
:10086000D506E606F70620F1809107019091080170
:10087000A0910901B0910A01840F951FA61FB71F0F
:100880008C159D05AE05BF0548F08093CD0590936E
:10089000CE05A093CF05B093D00508C0C092CD057A
:1008A000D092CE05E092CF05F092D00581E001C054
:1008B00080E06090C105A090C0058090BF05909039
:1008C000BE05B090BD050091BB051091B9057FBE76
:1008D000882309F453C080910201882359F068E30A
:1008E00075E08EEB96E00E94210D40E2C701B60153
:1008F0000E94F3056AE375E08EEB96E00E94210DFD
:10090000662D70E080E090E048E00E94F3056A2DDB
:1009100070E080E090E048E00E94F305811002C0A2
:1009200080E301C081E3911002C060E001C062E099
:10093000680F8EEB96E00E94230D6CE375E08EEB62
:1009400096E00E94210D6B2D70E080E090E048E081
:100950000E94F305602F70E080E090E048E00E9484
:10096000F305612F70E080E090E048E00E94F3051D
:100970006BEF74E08EEB96E00E94210D80910101F7
:10098000811104C060E070E0CB0111C0D11104C03E
:1009900060E07FEFCB010BC0CC2329F060E070E07A
:1009A00080E090EA04C06FEF7FEF8FEF9FEDDF9163
:1009B000CF911F910F91FF90EF90DF90CF90BF905C
:1009C000AF909F908F907F906F900C9475038EEFF7
:1009D00095E00C945B08CF92DF92EF92FF921F9309
:1009E000CF93DF937B016A01682F8EEF95E00E9421
:1009F0007508E70111E0CE018E199F098C159D0540
:100A00004CF469918EEF95E00E941C08019799F3D0
:100A100010E0F1CF8EEF95E00E949208812FDF91D8
:100A2000CF911F91FF90EF90DF90CF900895CF92DC
:100A3000DF92EF92FF920F931F93CF93DF936B019F
:100A4000042F682F8EEF95E00E947208E82EF12C9B
:100A5000C0E0D0E010E08EEF95E00E94C007892B47
:100A600069F08EEF95E00E94C807C017D10724F403
:100A7000F601EC0FFD1F80832196EDCFE016F10605
:100A800021F481E0CE15DF0509F080E0DF91CF9100
:100A90001F910F91FF90EF90DF90CF900895EFE6B8
:100AA000F0E010821092700010928000A1E8B0E097
:100AB00088E08C9382E08093B0001092B100109295
:100AC000D2051092D3051092D4051092D50596E068
:100AD000909389009FE39093880099E09C93808392
:100AE00008951092D2051092D3051092D405109259
:100AF000D50508952FB7F8946091D2057091D3056C
:100B00008091D4059091D5052FBF08956091D205AD
:100B10007091D3058091D4059091D50508951F92C9
:100B20000F920FB60F9211242F933F934F935F9321
:100B30006F937F938F939F93AF93BF93EF93FF93A5
:100B40008091D2059091D305A091D405B091D5059F
:100B50000196A11DB11D8093D2059093D305A0935A
:100B6000D405B093D5050E94F903FF91EF91BF9191
:100B7000AF919F918F917F916F915F914F913F9135
:100B80002F910F900FBE0F901F90189580E090E06E
:100B9000FC01EE51FA4F1082019684319105C1F7A4
:100BA0001092E1051092E0050895CF93DF9300D0F5
:100BB00000D0CDB7DEB7AB01BC0149835A836B834C
:100BC0007C830E94C60549815A816B817C818EEBB2
:100BD00096E00F900F900F900F90DF91CF910C94B3
:100BE000210C0C94C60526ED35E01092D605483050
:100BF000D1F0403181F59F938F937F936F9384E47D
:100C000095E09F938F931F928AE08F933F932F934A
:100C10000E94A50E8DB79EB70A960FB6F8949EBF98
:100C20000FBE8DBF2FC09F938F937F936F938EE3E3
:100C300095E09F938F931F928AE08F933F932F931A
:100C40000E94A50E8DB79EB70A960FB6F8949EBF68
:100C50000FBE8DBF17C09F938F937F936F938AE4CE
:100C600095E09F938F931F928AE08F933F932F93EA
:100C70000E94A50E8DB79EB70A960FB6F8949EBF38
:100C80000FBE8DBF66ED75E08EEB96E00C94210DE6
:100C90008EEB96E00E94090B1816190684F58EEB70
:100CA00096E00E94350B8A3011F08D3089F4109255
:100CB000F5058091E0059091E10584319105E4F41A
:100CC000FC01EE51FA4F108218161906ACF017C04D
:100CD0008032F4F22091E0053091E10524313105B4
:100CE000BCF6F901EE51FA4F80832F5F3F4F3093EE
:100CF000E1052093E005CCCF82EE95E0089580E0F9
:100D000090E00895EBEFF5E01082118212821092CC
:100D1000FA051092F6051092F7051092F805109258
:100D2000F90508950C9482068F929F92AF92BF921C
:100D3000CF92DF92EF92FF920F931F93CF93DF93A7
:100D400000D0CDB7DEB789839A830E94820689815D
:100D5000082F9A81192FB12C812C912CE0E0F0E022
:100D6000AA24A394D8016D918D01662309F47FC054
:100D7000E230F10511F134F4309759F0E130F1052A
:100D8000A1F038C0E330F105E9F0E430F10509F1F4
:100D900031C0862F8F7D81548A31F0F0613254F159
:100DA0006F33E9F4BB24B3941AC0862F8F7D81542E
:100DB0008A3100F16132B4F012C080ED860F8A30C2
:100DC000A0F007C080ED860F8A30A0F0613284F079
:100DD00006C061327CF003C0E1E0F0E00BC0E5E06A
:100DE000F0E008C0E2E0F0E005C0E3E0F0E002C0BF
:100DF000E4E0F0E0E130F10531F1E330F10509F034
:100E0000B1CFA092FA0580ED860FC82E880FDD08BD
:100E1000EE08FF082091F6053091F7054091F8059E
:100E20005091F905AAE0B0E00E948B0EC60ED71EC5
:100E3000E81EF91EC092F605D092F705E092F8057B
:100E4000F092F9058FCF8FE9860F8A3108F460524E
:100E500083E08816910444F4D401A550BA4F6C93F2
:100E6000AFEF8A1A9A0A7ECFE5E0F0E07BCFBB2095
:100E700061F00E94820688E48093FB058CE48093F5
:100E8000FC0580E58093FD0510C0309749F0B3E084
:100E90008B16910441F00E94820682E090E007C028
:100EA00080E090E004C03597B1F381E090E00F90CE
:100EB0000F90DF91CF911F910F91FF90EF90DF90F6
:100EC000CF90BF90AF909F908F9008950F931F93F6
:100ED000CF93DF93D82FC92F60E575E08EEB96E0B6
:100EE0000E94210D0D2F1C2FF801C1918F01CC23E1
:100EF000C9F080EE8C0F8F3510F46C2F0EC06CE3B0
:100F00008EEB96E00E94230D6C2FCC0F770B880B95
:100F1000990B48E00E94F3056EE38EEB96E00E9489
:100F2000230DE2CF69E675E08EEB96E0DF91CF917D
:100F30001F910F910C94210DCF93DF930097C9F06F
:100F4000EC010E9494068130910589F46091F605C8
:100F50007091F7054091FA058BEF95E00E94C7016B
:100F6000811107C0CE01DF91CF910C9466070297E3
:100F7000C9F3DF91CF9108950C9496000C94A200D0
:100F800080912E0690E020912F06821B91090895F2
:100F900090912F0680912E06981750F4E92FF0E0DB
:100FA000E05DF94F208130E09F5F90932F0602C0F3
:100FB0002FEF3FEFC9010895E0912F0680912E0693
:100FC000E81730F4F0E0E05DF94F808190E008959B
:100FD0008FEF9FEF08950895CF92DF92EF92FF92E7
:100FE0000F931F93CF93DF937C01262F972F8A01B6
:100FF00080910A06882391F0C62FD72F6E01C40E68
:10100000D51ECC15DD0571F06991D701ED91FC91EC
:101010000190F081E02DC7010995F3CF642F822F55
:101020000E944D09C801DF91CF911F910F91FF9050
:10103000EF90DF90CF900895CF93DF931F92CDB7BD
:10104000DEB7698320910A062223D1F020910B0696
:10105000203240F021E030E0FC013383228380E045
:1010600090E015C080910C06E82FF0E0E35FF94FA7
:10107000998190838F5F80930C0680930B0605C047
:1010800061E0CE0101960E944D0981E090E00F9051
:10109000DF91CF910895FC011382128288EE93E0D4
:1010A000A0E0B0E084839583A683B7838EE895E0C3
:1010B00091838083089510922F0610922E0610922D
:1010C0000C0610920B060C949908862F413208F0FA
:1010D00040E260E376E00E94B70810922F0680930A
:1010E0002E06089521E00C94650881E080930A069D
:1010F00060932D0610920C0610920B0608950F9324
:10110000062F21E040910B066DE076E080912D06E0
:101110000E94FB0810920C0610920B0610920A0611
:101120000F91089561E00C947F088EEF95E00C9488
:101130004B081092BD0681E08093BB061092BA0660
:1011400061E082E10E94CC0A61E083E10E94CC0A66
:10115000E9EBF0E080818E7F808380818D7F8083CA
:1011600088E48093B80085E48093BC000895413200
:1011700008F03FC09091BD069111FCCF91E0909393
:10118000BD062093BB062FEF2093500610929506C4
:10119000240F209394069093BC069091BC06880F70
:1011A000892B8093BC068091BA06813041F410925D
:1011B000BA068091BC068093BB0085EC01C085EE29
:1011C0008093BC008091BD068130E1F3809195064B
:1011D000841710F44091950626E936E0FB01D90109
:1011E0008A2F821B841718F48D918193F9CF842F55
:1011F000089580E008950F93413208F046C0909121
:10120000BD069111FCCF32E03093BD060093BB06C2
:101210003FEF309350061092950640939406FB01E1
:1012200066E976E0DB013A2F361B341718F431916A
:101230003D93F9CF1092BC063091BC06880F832BEA
:101240008093BC068091BA06813041F41092BA06B0
:101250008091BC068093BB0085EC01C085EE809335
:10126000BC00222321F08091BD068230D1F3809111
:1012700050068F3F79F080915006803241F0809186
:101280005006803331F094E005C091E003C092E055
:1012900001C093E0892F0F910895613298F4209155
:1012A000BD06243089F460937206FC0124E736E021
:1012B000D9018A2F821B861718F481918D93F9CF5B
:1012C00080E0089581E0089582E0089585ED80939F
:1012D000BC008091BC0084FDFCCF1092BD06089537
:1012E00085EC8093BC001092BD0608951F920F926A
:1012F0000FB60F9211242F933F934F935F936F93E9
:101300007F938F939F93AF93BF93EF93FF938091BE
:10131000B900887F803609F49CC068F5883209F4EA
:101320005BC090F4803109F454C038F4882309F488
:10133000F5C0883009F44DC0F5C0883109F44CC0BF
:10134000803209F45DC0EEC0803409F468C048F40E
:10135000803309F455C0883309F0E4C08093500607
:10136000A8C0803509F44FC0883509F45DC08834C1
:1013700009F0D8C0D5C0883909F4C6C0A8F48837A8
:1013800009F467C038F4883609F463C0803709F47B
:1013900060C0C8C0883809F4B7C0803909F45FC09C
:1013A000803809F0BFC05BC0803B09F485C038F4C9
:1013B000803A09F466C0883A09F47EC0B3C0803C24
:1013C00009F4A6C0883C09F4A3C0883B09F489C08D
:1013D000A9C08091BC0610C090919506809194069A
:1013E000981770F5E091950681E08E0F8093950631
:1013F000F0E0EA56F94F80818093BB0085EC85C010
:10140000809350068DC0E091950681E08E0F809309
:1014100095068091BB00F0E0EA56F94F80839091E9
:101420009506809194066DC0E091950681E08E0F3F
:10143000809395068091BB00F0E0EA56F94F8083D7
:101440008091BB0681116CC081E08093BA0684EA6A
:1014500060C083E08093BD0610925106CFCF80918B
:101460005106803208F050C0E091510681E08E0FA5
:10147000809351068091BB00F0E0EE5AF94F8083D3
:10148000BDCF80915106803230F4E0915106F0E0FA
:10149000EE5AF94F10820E9466096091510670E081
:1014A000E091B606F091B70682E596E009951092B4
:1014B00051060E94700936C084E08093BD061092E8
:1014C000730610927206E091B806F091B90609957C
:1014D00080917206811105C081E08093720610929E
:1014E0007406E091730681E08E0F80937306F0E03E
:1014F000EC58F94F80818093BB00909173068091E6
:101500007206981708F47ACF85E88093BC000AC069
:1015100085EC8093BC001092BD0604C0109250066A
:101520000E946609FF91EF91BF91AF919F918F91BA
:101530007F916F915F914F913F912F910F900FBECF
:101540000F901F901895833081F028F4813099F026
:101550008230A1F008958630A9F08730B9F0843048
:10156000D1F4809180008F7D03C0809180008F77BF
:1015700080938000089584B58F7702C084B58F7DF5
:1015800084BD08958091B0008F7703C08091B00032
:101590008F7D8093B00008951F93CF93DF93282F02
:1015A00030E0F901E257FF4F8491F901EE55FF4F0A
:1015B000D491F901EA54FF4FC491CC23C9F0162FFE
:1015C00081110E94A30AEC2FF0E0EE0FFF1FE653FB
:1015D000FF4FA591B4918FB7F894111105C09C915C
:1015E000ED2FE095E92302C0EC91ED2BEC938FBF3A
:1015F000DF91CF911F9108950E94280E0E94BC0791
:10160000CDEDDBE00E94BE072097E1F30E94DD0BE9
:10161000F9CFFC0124853585F901E05CFF4F80811D
:101620009181329620813181821B930B8F73992790
:101630000895DC011C96ED91FC911D97DF01A05CE3
:10164000BF4F2D913C91119712968D919C911197BE
:101650002817390739F08D919C91E80FF91F808187
:1016600090E008958FEF9FEF0895FC01A485B58564
:10167000FD01E05CFF4F20813181329680819181B4
:101680002817390779F080819181A80FB91F8C91B3
:10169000208131812F5F3F4F2F7333273183208388
:1016A00090E008958FEF9FEF0895FC0181A18823BA
:1016B00029F0A489B5898C9186FFFBCF11A20895EA
:1016C0000F931F93CF93DF93FC01A685B7858D0100
:1016D000005C1F4FE8018881998101968F739927DB
:1016E000AD014E5B5F4FEA01288139818217930774
:1016F000D1F3E80128813981A20FB31F6C93A6852D
:10170000B785A05CBF4F11969C938E93A689B7892D
:101710002C9181E090E0078C02C0880F991F0A94F9
:10172000E2F7822B8C9381E081A30488F589E02D78
:1017300080818064808381E090E0DF91CF911F9170
:101740000F91089508951F920F920FB60F921124D2
:101750002F934F935F938F939F93EF93FF9380917A
:10176000C00082FD1CC02091C6008091640790914A
:10177000650701968F739927409166075091670717
:101780008417950771F0E0916407F0916507EC5DAF
:10179000F84F2083909365078093640702C080917F
:1017A000C600FF91EF919F918F915F914F912F9183
:1017B0000F900FBE0F901F9018958EEB96E00E9431
:1017C000090B892B11F00C94A20B08951F920F9214
:1017D0000FB60F9211242F933F938F939F93EF9304
:1017E000FF9320912007309121078091220790914B
:1017F00023072817390731F48091C1008F7D80932A
:10180000C10014C0E0912207F0912307E052F94F84
:101810002081809122079091230701968F73992749
:1018200090932307809322072093C600FF91EF91A6
:101830009F918F913F912F910F900FBE0F901F900E
:101840001895CF92DF92EF92FF920F931F93CF9351
:10185000DF93EC016A017B014115514E6105710571
:1018600009F1EC89FD8981E090E008A002C0880FB1
:10187000991F0A94E2F7808360E079E08DE390E0BD
:10188000A70196010E94630E89019A010150110976
:101890002109310936952795179507959801011566
:1018A0001041A8F0EC89FD89108260E874E88EE1AF
:1018B00090E0A70196010E94630EDA01C901019729
:1018C000A109B109B695A795979587959C01E889D7
:1018D000F9893083EA89FB89208319A2EE89FF897F
:1018E000408181E090E09C010C8C02C0220F331FEC
:1018F0000A94E2F7242B2083EE89FF8940819C0122
:101900000D8C02C0220F331F0A94E2F7242B208390
:10191000EE89FF8940819C010E8C02C0220F331F8B
:101920000A94E2F7242B2083EE89FF8920810F8C13
:1019300002C0880F991F0A94E2F780958223808362
:10194000DF91CF911F910F91FF90EF90DF90CF909B
:101950000895EEEBF6E01382128288EE93E0A0E0A9
:10196000B0E084839583A683B7838EE995E0918365
:10197000808384E297E09587848780EE96E097875E
:10198000868785EC90E0918B808B84EC90E0938B44
:10199000828B80EC90E0958B848B81EC90E0978B30
:1019A000868B82EC90E0918F808F86EC90E0938F15
:1019B000828F84E0848F83E0858F87E0868F85E047
:1019C000878F81E080A30895CF92DF92EF92FF92FC
:1019D0000F931F93CF93DF936C01EB017B01E40E18
:1019E000F51E00E010E0CE15DF0561F06991D6012B
:1019F000ED91FC910190F081E02DC6010995080F51
:101A0000191FF1CFC801DF91CF911F910F91FF9066
:101A1000EF90DF90CF9008956115710579F0FB018B
:101A200001900020E9F73197AF01461B570BDC010D
:101A3000ED91FC910280F381E02D099480E090E02B
:101A400008950C940C0DDC01ED91FC910190F08156
:101A5000E02D09948F929F92AF92BF92CF92DF9226
:101A6000EF92FF920F931F93CF93DF93CDB7DEB723
:101A7000A1970FB6F894DEBF0FBECDBF6C01142F37
:101A8000E52FCB01022F19A2223008F40AE07E01D3
:101A900021E2E20EF11C802E912CA12CB12C612FA1
:101AA0007E2FA50194010E94630E029F101911243C
:101AB00081E0E81AF1081A3014F4105D01C0195CD5
:101AC000F7011083122FE32FCA01232B242B252B80
:101AD00031F7B701C6010E940C0DA1960FB6F8941C
:101AE000DEBF0FBECDBFDF91CF911F910F91FF9051
:101AF000EF90DF90CF90BF90AF909F908F90089520
:101B0000CF92DF92EF92FF920F931F93CF93DF93C9
:101B1000EC016A017B012115310579F4E881F98135
:101B20000190F081E02D642FDF91CF911F910F91F3
:101B3000FF90EF90DF90CF9009942A303105E9F4BF
:101B400077FF1AC06DE20E94230D8C0144275527B0
:101B5000BA014C195D096E097F092AE0CE010E9485
:101B60002A0D800F911FDF91CF911F910F91FF9050
:101B7000EF90DF90CF9008952AE0B701A601CE0143
:101B8000DF91CF911F910F91FF90EF90DF90CF9059
:101B90000C942A0D9A01AB01770F660B770B0C940E
:101BA000800D2115310541F4DC01ED91FC9101908E
:101BB000F081E02D642F09940C942A0D1F920F924E
:101BC0000FB60F9211242F933F938F939F93AF9350
:101BD000BF938091690790916A07A0916B07B091BC
:101BE0006C073091680723E0230F2D3720F401960E
:101BF000A11DB11D05C026E8230F0296A11DB11D30
:101C0000209368078093690790936A07A0936B07F6
:101C1000B0936C0780916D0790916E07A0916F074C
:101C2000B09170070196A11DB11D80936D0790932F
:101C30006E07A0936F07B0937007BF91AF919F910C
:101C40008F913F912F910F900FBE0F901F9018957D
:101C5000789484B5826084BD84B5816084BD85B587
:101C6000826085BD85B5816085BDEEE6F0E080814E
:101C700081608083E1E8F0E010828081826080836F
:101C8000808181608083E0E8F0E0808181608083F2
:101C9000E1EBF0E0808184608083E0EBF0E0808124
:101CA00081608083EAE7F0E08081846080838081C6
:101CB000826080838081816080838081806880836E
:101CC0001092C1000895A1E21A2EAA1BBB1BFD01B0
:101CD0000DC0AA1FBB1FEE1FFF1FA217B307E4070B
:101CE000F50720F0A21BB30BE40BF50B661F771F63
:101CF000881F991F1A9469F7609570958095909543
:101D00009B01AC01BD01CF010895EE0FFF1F0590AF
:101D1000F491E02D09940E94960EA59F900DB49F1A
:101D2000900DA49F800D911D11240895A29FB001D4
:101D3000B39FC001A39F700D811D1124911DB29FFF
:101D4000700D811D1124911D0895AEE0B0E0EBEA05
:101D5000FEE00C9461110D891E898F89988D26E013
:101D60002C831A83098397FF02C080E090E80197D3
:101D70009E838D83AE01455E5F4F698D7A8DCE0166
:101D800001960E94D50E4D815E8157FD0AC02F81BC
:101D90003885421753070CF49A01F801E20FF31F3C
:101DA00010822E96E4E00C947D11ACE0B0E0EBEDF7
:101DB000FEE00C9453117C016B018A01FC01178237
:101DC0001682838181FFBDC1CE0101964C01F701CE
:101DD0009381F60193FD859193FF81916F01882393
:101DE00009F4ABC1853239F493FD859193FF81915C
:101DF0006F01853229F4B70190E00E94BD10E7CF52
:101E0000512C312C20E02032A0F48B3269F030F4D8
:101E1000803259F0833269F420612CC08D3239F060
:101E2000803339F4216026C02260246023C02860FA
:101E300021C027FD27C030ED380F3A3078F426FF57
:101E400006C0FAE05F9E300D1124532E13C08AE0C5
:101E5000389E300D1124332E20620CC08E3221F4B6
:101E600026FD6BC1206406C08C3611F4206802C0C8
:101E7000883641F4F60193FD859193FF81916F01BE
:101E80008111C1CF982F9F7D9554933028F40C5F1A
:101E90001F4FFFE3F9830DC0833631F0833771F0B4
:101EA000833509F05BC022C0F801808189830E5F11
:101EB0001F4F44244394512C540115C03801F2E0C3
:101EC0006F0E711CF801A080B18026FF03C0652D44
:101ED00070E002C06FEF7FEFC5012C870E94B21047
:101EE0002C0183012C852F77222E17C03801F2E0B8
:101EF0006F0E711CF801A080B18026FF03C0652D14
:101F000070E002C06FEF7FEFC5012C870E94A71021
:101F10002C012C852068222E830123FC1BC0832DDD
:101F200090E048165906B0F4B70180E290E00E94B4
:101F3000BD103A94F4CFF50127FC859127FE8191DD
:101F40005F01B70190E00E94BD1031103A94F1E0BA
:101F50004F1A51084114510471F7E5C0843611F04D
:101F6000893639F5F80127FF07C0608171818281C8
:101F700093810C5F1F4F08C060817181072E000C98
:101F8000880B990B0E5F1F4F2F76722E97FF09C09B
:101F900090958095709561957F4F8F4F9F4F2068EA
:101FA000722E2AE030E0A4010E94F510A82EA81895
:101FB00044C0853729F42F7EB22E2AE030E025C0B8
:101FC000F22FF97FBF2E8F36C1F018F4883579F0E3
:101FD000B4C0803719F0883721F0AFC02F2F2061AF
:101FE000B22EB4FE0DC08B2D8460B82E09C024FF24
:101FF0000AC09F2F9660B92E06C028E030E005C0C9
:1020000020E130E002C020E132E0F801B7FE07C075
:1020100060817181828193810C5F1F4F06C0608156
:10202000718180E090E00E5F1F4FA4010E94F510C7
:10203000A82EA818FB2DFF777F2E76FE0BC0372D1C
:102040003E7FA51450F474FE0AC072FC08C0372D00
:102050003E7E05C0BA2C372D03C0BA2C01C0B52C6A
:1020600034FF0DC0FE01EA0DF11D8081803311F4B3
:10207000397E09C032FF06C0B394B39404C0832FE5
:10208000867809F0B39433FD13C030FF06C05A2C94
:10209000B31418F4530C5B18B32CB31468F4B701E1
:1020A00080E290E03C870E94BD10B3943C85F5CF60
:1020B000B31410F43B1801C0312C34FF12C0B70127
:1020C00080E390E03C870E94BD103C8532FF17C042
:1020D00031FD03C088E790E002C088E590E0B701D9
:1020E0000CC0832F867859F031FF02C08BE201C00B
:1020F00080E237FD8DE2B70190E00E94BD10A5148B
:1021000038F4B70180E390E00E94BD105A94F7CFF5
:10211000AA94F401EA0DF11D8081B70190E00E94BC
:10212000BD10A110F5CF332009F451CEB70180E2E4
:1021300090E00E94BD103A94F6CFF7018681978116
:1021400002C08FEF9FEF2C96E2E10C946F11FC011F
:102150000590615070400110D8F7809590958E0FD2
:102160009F1F0895FC016150704001900110D8F745
:10217000809590958E0F9F1F08950F931F93CF9377
:10218000DF93FB01238121FD03C08FEF9FEF28C068
:1021900022FF16C04681578124813581421753079B
:1021A00044F4A081B1819D012F5F3F4F3183208393
:1021B0008C93268137812F5F3F4F3783268310C052
:1021C000EB01092F182F0084F185E02D0995892B4B
:1021D000E1F68E819F8101969F838E83812F902FC0
:1021E000DF91CF911F910F910895FA01AA2728300E
:1021F00051F1203181F1E8946F936E7F6E5F7F4FD4
:102200008F4F9F4FAF4FB1E03ED0B4E03CD0670F4F
:10221000781F891F9A1FA11D680F791F8A1F911DA2
:10222000A11D6A0F711D811D911DA11D20D009F4F2
:1022300068943F912AE0269F11243019305D319334
:10224000DEF6CF010895462F4770405D4193B3E01D
:102250000FD0C9F7F6CF462F4F70405D4A3318F0C4
:10226000495D31FD4052419302D0A9F7EACFB4E075
:10227000A6959795879577956795BA95C9F700972D
:102280006105710508959B01AC010A2E06945795CE
:10229000479537952795BA95C9F7620F731F841F25
:1022A000951FA01D08952F923F924F925F926F92BB
:1022B0007F928F929F92AF92BF92CF92DF92EF92D6
:1022C000FF920F931F93CF93DF93CDB7DEB7CA1B57
:1022D000DB0B0FB6F894DEBF0FBECDBF09942A8882
:1022E000398848885F846E847D848C849B84AA842A
:1022F000B984C884DF80EE80FD800C811B81AA81B7
:10230000B981CE0FD11D0FB6F894DEBF0FBECDBF81
:08231000ED010895F894FFCFE0
:1023180001010164000000E8030000FB00F05543E0
:102328006F6D6D616E64733A0D0A203F2C20484C26
:102338005020203A202048656C70207363726565D0
:102348006E2E0D0A2020202051525920203A20209C
:1023580051756572792073797374656D2073746132
:1023680074652E0D0A202045434820312F303A202D
:102378002053746172742F73746F70206563686F73
:10238800696E67207479706564206368617261633F
:1023980074657273206261636B20746F2074686562
:1023A80020686F73742E0D0A202020204944512084
:1023B800203A2020446576696365206964656E74F7
:1023C800696669636174696F6E20737472696E6798
:1023D8002071756572792E0D0A20202020494E49FA
:1023E80020203A20205265696E697469616C697AA7
:1023F800652028636C6F636B207265736574206158
:102408006E64206576656E74732069646C656429F2
:102418002E0D0A20204C4F4720312F303A202053D0
:10242800746172742F73746F70207265706F727438
:10243800696E67206C6F6720646174612E0D0A20D5
:102448002020204C494E206E3A2020536574207479
:1024580068652064617461207265706F7274696E5A
:102468006720696E74657276616C20746F206E20C7
:102478007469636B732E0D0A20204C545320312F3E
:10248800303A2020496E636C7564652F646F6E273F
:102498007420696E636C7564652074696D65737406
:1024A800616D707320696E206C6F67207265706F44
:1024B8007274732E0D0A202020204B494E206E3A4C
:1024C800202053657420746865206E756E63687586
:1024D800636B20706F6C6C696E6720696E746572CF
:1024E80076616C20746F206E207469636B732E0D97
:1024F8000A2020424C4E20312F303A2020456E6170
:10250800626C652F64697361626C652073746174B1
:102518007573204C454420626C696E6B696E672E3A
:102528000D0A0053797374656D20737461746520A6
:1025380028616C6C2076616C75657320696E206209
:10254800617365203130293A0D0A002020566572E2
:1025580073696F6E3A202032303137303831300DA0
:102568000A00202054696D657374616D703A2020EB
:1025780000207469636B730D0A002020436C6F633D
:102588006B207469636B7320706572207365636F69
:102598006E643A20200020204E756E636875636B68
:1025A8002064657465637465643A20205945530D49
:1025B8000A0020204E756E636875636B206465742D
:1025C80065637465643A20204E4F0D0A0020204E42
:1025D800756E636875636B20706F6C6C696E6720CD
:1025E800696E74657276616C3A20200020204E7501
:1025F8006E636875636B20646174612073637261D4
:102608006D626C696E673A20204F46460D0A0020BD
:10261800204175746F6D617469632073746172749D
:102628003A20205945530D0A0020204175746F6DDA
:10263800617469632073746172743A20204E4F0D7F
:102648000A0020204C6F6767696E673A20204F4E5A
:102658000D0A0020204C6F6767696E673A20204F8B
:1026680046460D0A0020204C6F6720696E7465721B
:1026780076616C3A20200020204C6F672074696DC9
:10268800657374616D70733A20204F4E0D0A0020F7
:10269800204C6F672074696D657374616D70733A4F
:1026A80020204F46460D0A002020426C696E6B20A0
:1026B800636F6465733A20204F4E0D0A0020204254
:1026C8006C696E6B20636F6465733A20204F4646D1
:1026D8000D0A002020436C6F636B207469636B7371
:1026E8002070657220626C696E6B20636F64652070
:1026F8006269743A202000456E64206F6620737901
:102708007374656D2073746174652E0D0A006465B9
:1027180076696365747970653A204E6575726F6382
:102728006875636B2020737562747970653A2076DA
:102738003120207265766973696F6E3A20323031C4
:1027480037303831300D0A0054004A004C0025302B
:10275800326C78002530346C78002530386C78007D
:10276800556E7265636F676E697A656420636F6D15
:102778006D616E643A20202200222E205479706503
:1027880020223F22206F722022484C502220666F60
:10279800722068656C702E0D0A00000000001C088D
:1027A800EC07C007C807DC07EB0700000000600B58
:0A27B800E40C090B350B190B550B4F
:00000001FF
