:100000000C945F080C9490080C9490080C94900841
:100010000C9490080C9490080C9490080C94900800
:100020000C9490080C9490080C9490080C949008F0
:100030000C9490080C9490080C9490080C949008E0
:100040000C9490080C9490080C9490080C949008D0
:100050000C9490080C9490080C9490080C949008C0
:100060000C9490080C945F210C9489210C949008B6
:100070000C9490080C9490080C9490080C949008A0
:100080000C9490080C9490080C9490080C94900890
:100090000C9490080C9490080C9490080C94900880
:1000A0000C9490080C9490080C9490080C94900870
:1000B0000C9490080C9490080C9490080C94402098
:1000C0000C9490080C9490080C9490080C94900850
:1000D0000C9490080C9490080C9490080C94900840
:1000E0000C949008BA16281A281A281A6619281A81
:1000F000C116AD19281ABA16CD16281A281AE316F1
:10010000281A3B18281A281ABD16E017281A24178F
:10011000281A281A281AD0190C94E0170C94281AB7
:100120000C94BD160C94CD160C9424170C943B180B
:100130000C945D0B0C94D0190C94E3160C94AD192F
:100140000C94C1160C94C5210C9466190C94BA1623
:100150000D0A000D0A002000436F64653A20000D6F
:100160000A0053796E636820323A20000D0A00536A
:10017000796E63683A20000D0A00200052657761AD
:10018000726420323A20000D0A0020005265776127
:1001900072643A20000D0A0020424C4B0020574860
:1001A000540020424C4B002057485400200020208F
:1001B0004F707420286C2F72293A200020002000F4
:1001C00020204A6F792028782F792F63293A200040
:1001D00054696D653A2000204200205700204200FB
:1001E000205700200020204C523A20002000200000
:1001F00020205859433A2000543A2000420057002A
:10020000420057004C004A005400456E64206F665F
:100210002073797374656D2073746174652E0D0A93
:10022000000D0A0020204A6F79737469636B2061A6
:100230006E616C6F67207468726573686F6C643A86
:100240002020006E6F6E650D0A00424F4755530D1A
:100250000A000D0A002020416E616C6F6720696EF4
:10026000707574206265696E67206D6F6E69746F5A
:100270007265643A2020000D0A0020206E6F6E65C2
:100280000020204E455500202054494D002020528A
:10029000574400202045787465726E616C20657645
:1002A000656E742074726967676572733A007829A5
:1002B0000D0A0020280020205370696B65207265AC
:1002C0006A656374696F6E207468726573686F6CB9
:1002D000643A2020325E002073616D706C65732972
:1002E0000D0A0020626974732020286465636179B7
:1002F000206C656E67746820000D0A2020566172BC
:1003000069616E6365204C50463A20200020204FE2
:1003100046460D0A0020205370696B652073757086
:100320007072657373696F6E2066696C7465723A7A
:10033000002073616D706C6573290D0A002062697D
:1003400074732020286465636179206C656E67741E
:100350006820004F46460D0A0020204E6F697365E5
:10036000207375707072657373696F6E2066696C47
:100370007465723A2020002020416E616C6F672006
:1003800073616D706C652073697A653A202020383E
:1003900020626974730D0A0020204C69676874201C
:1003A00073656E736F72204C2F52206172652053FB
:1003B0005741505045442077697468206A6F7973BB
:1003C0007469636B20582F592E0D0A0020204C6948
:1003D000676874207468726573686F6C6420736CEE
:1003E0006176696E673A2020494E444550454E4437
:1003F000454E540D0A0020204C69676874207468CB
:10040000726573686F6C6420736C6176696E673AAD
:10041000202052494748540D0A0020204C69676843
:1004200074207468726573686F6C6420736C617695
:10043000696E673A20204C4546540D0A000D0A00AB
:10044000202F200020204C696768742073656E732C
:100450006F72207468726573686F6C647320286CA7
:100460006566742F7269676874293A20200020201D
:100470004576656E7420636F6465206461746120E5
:1004800077696474683A2020313620626974730D8C
:100490000A0020204576656E7420636F64652064D1
:1004A0006174612077696474683A20202038206282
:1004B0006974730D0A0020204576656E7420636FA1
:1004C0006465207374726F62653A20204F46460D52
:1004D0000A0020204576656E7420636F6465207382
:1004E00074726F62653A20204F4E0D0A00207469C5
:1004F000636B730D0A00202F2000202F2000202086
:100500004576656E7420636F646520646174612054
:1005100066726F6E742D706F7263682F7374726F72
:1005200062652F6261636B2D706F7263683A202081
:1005300000207469636B730D0A00202F20002020B7
:1005400054696D696E67206368322070756C7365DD
:100550002077696474682F706572696F643A20202F
:1005600000202054696D696E67206368323A20204C
:100570004F46460D0A00202054696D696E6720635E
:1005800068323A20204F4E0D0A00207469636B7365
:100590000D0A00202F2000202054696D696E67200D
:1005A00070756C73652077696474682F7065726903
:1005B0006F643A202000202054696D696E673A20EC
:1005C000204F46460D0A00202054696D696E673A37
:1005D00020204F4E0D0A002020566572626F73690D
:1005E00074793A202046756C6C0D0A0020205665FF
:1005F00072626F736974793A202054657273650D65
:100600000A002020566572626F736974793A20205F
:100610005061636B6564206865780D0A0020746919
:10062000636B730D0A0020204C6F6720696E746540
:100630007276616C3A20200020204C6F6767696EEB
:10064000673A20204F46460D0A0020204C6F67670E
:10065000696E673A20204F4E0D0A000D0A0044379C
:100660002F48342F47503031000D0A202044656256
:100670007567206D6F6E69746F72206F7574707519
:10068000743A20200044362F48332F475030300032
:100690000D0A20204465627567207472696767657A
:1006A0007220696E7075743A2020004431332F42F5
:1006B000372F47503037002020202054696D696E55
:1006C000672063683220492F4F3A2020004431329E
:1006D0002F42362F47503036000D0A202054696DC6
:1006E000696E6720492F4F3A2020004431302F4255
:1006F000342F47503034002020202052657761721B
:10070000642063683220492F4F3A20200044313161
:100710002F42352F475030350020205265776172C7
:100720006420492F4F3A2020000D0A002020436CFE
:100730006F636B207469636B7320706572207365DF
:10074000636F6E643A202000207469636B730D0A36
:1007500000202054696D657374616D703A2020002B
:10076000202056657273696F6E3A20203230323124
:10077000303231310D0A0053797374656D20737412
:100780006174652028616C6C2076616C75657320DE
:10079000696E2062617365203130293A0D0A004389
:1007A0006F6D6D616E64733A0D0A203F2C20484CCA
:1007B0005020203A202048656C7020736372656574
:1007C0006E2E0D0A2020202051525920203A202040
:1007D00051756572792073797374656D20737461D6
:1007E00074652E0D0A202045434820312F303A20D1
:1007F0002053746172742F73746F70206563686F17
:10080000696E6720747970656420636861726163E2
:1008100074657273206261636B20746F2074686505
:1008200020686F73742E0D0A202020204944512027
:10083000203A2020446576696365206964656E749A
:10084000696669636174696F6E20737472696E673B
:100850002071756572792E0D0A20202020494E499D
:1008600020203A20205265696E697469616C697A4A
:10087000652028636C6F636B2072657365742061FB
:100880006E64206576656E74732069646C65642996
:100890002E0D0A20204C4F4720312F303A20205374
:1008A000746172742F73746F70207265706F7274DC
:1008B000696E67206C6F6720646174612E0D0A2079
:1008C0002020204C494E206E3A202053657420741D
:1008D00068652064617461207265706F7274696EFE
:1008E0006720696E74657276616C20746F206E206B
:1008F0007469636B732E0D0A4C564220322F312FD0
:10090000303A2020536574206461746120726570F0
:100910006F727420766572626F7369747920283201
:10092000203D2066756C6C2C2031203D2074657252
:1009300073652C2030203D207061636B65642068F6
:100940006578292E0D0A20202020545057206E3A19
:100950002020536574207468652074696D696E6722
:100960002070756C7365206475726174696F6E2098
:10097000746F206E207469636B732E0D0A20202023
:1009800020545050206E3A202053657420746865BE
:100990002074696D696E672070756C736520706571
:1009A00072696F6420746F206E207469636B732E9C
:1009B0000D0A202054494D20312F303A2020456E19
:1009C00061626C652F64697361626C652074696D26
:1009D000696E672070756C7365732E0D0A20202078
:1009E00020544257206E3A20205365742074686565
:1009F0002074696D696E67206368616E6E656C2036
:100A0000322070756C7365206475726174696F6EE5
:100A100020746F206E207469636B732E0D0A202082
:100A20002020544250206E3A202053657420746870
:100A3000652074696D696E67206368616E6E656CB0
:100A400020322070756C736520706572696F642048
:100A5000746F206E207469636B732E0D0A2020540E
:100A6000494220312F303A2020456E61626C652F5B
:100A700064697361626C652074696D696E67206377
:100A800068616E6E656C20322070756C7365732EB4
:100A90000D0A20202020525744206E3A2020536512
:100AA0006E642061207265776172642070756C736A
:100AB00065206C617374696E67206E207469636B66
:100AC000732E0D0A20202020525742206E3A2020FB
:100AD00053656E642061207265776172642063687B
:100AE000616E6E656C20322070756C7365206C6170
:100AF0007374696E67206E207469636B732E0D0AC0
:100B0000202020204E5355206E3A2020536574201B
:100B1000746865206576656E7420636F6465207007
:100B200072652D7374726F626520736574757020C1
:100B300074696D6520746F206E207469636B732E09
:100B40000D0A202020204E4844206E3A2020536574
:100B50007420746865206576656E7420636F6465C3
:100B600020706F73742D7374726F626520686F6C80
:100B7000642074696D6520746F206E207469636BE6
:100B8000732E0D0A20204E534520312F303A20205D
:100B9000456E61626C652F64697361626C65207378
:100BA00074726F62696E6720746865206D6F73740C
:100BB000207369676E69666963616E742065766526
:100BC0006E7420636F6465206269742E0D0A2020A4
:100BD00020204E5044206E3A2020536574207468C3
:100BE00065206576656E7420636F6465207374722A
:100BF0006F62652070756C736520647572617469CD
:100C00006F6E20746F206E207469636B732E0D0AF3
:100C1000202020204E4555206E3A2020456D6974D5
:100C20002076616C7565206E206F76657220746821
:100C300065206576656E7420636F646520706172EF
:100C4000616C6C656C20696E746572666163652E9B
:100C50000D0A202020204E4457206E3A2020536554
:100C600074206576656E7420636F646520646174BA
:100C70006120776964746820746F206E20626974E3
:100C800073202838206F72203136292E0D0A4353E5
:100C90004C2F522F4920203A20204C69676874203D
:100CA00073656E736F722063616C696272617469DF
:100CB0006F6E20736C6176656420746F206C65665E
:100CC000742C2072696768742C206F7220696E64BE
:100CD0006570656E64656E742E0D0A202043414F69
:100CE0002F46206E3A202043616C69627261746500
:100CF000206C696768742073656E736F7273206F00
:100D0000766572206E2D7469636B2077696E646FEF
:100D10007720286F6E652D73686F742F6672656516
:100D20002D72756E6E696E67292E0D0A2020435450
:100D3000522F4C206E3A2020466F726365206C65FE
:100D400066742F7269676874206C696768742073B1
:100D5000656E736F72207468726573686F6C64205F
:100D600076616C756520746F206E2E0D0A20202030
:100D70002046494C206E3A202053657420616E61F4
:100D80006C6F67206E6F6973652066696C7465723D
:100D90002077696E646F7720746F20325E6E2073E7
:100DA000616D706C65732028302064697361626CBA
:100DB0006573292E0D0A20202020465354206E3AB8
:100DC000202053657420616E616C6F6720737069B9
:100DD0006B652072656A656374696F6E20746872F2
:100DE0006573686F6C6420746F20325E6E20746966
:100DF0006D6573207468652076617269616E6365E4
:100E00002E0D0A20202020465357206E3A202053D2
:100E10006574207370696B652072656A65637469B7
:100E20006F6E2076617269616E63652077696E64AA
:100E30006F7720746F20325E6E2073616D706C6509
:100E4000732028302064697361626C6573292E0DEC
:100E50000A446562756767696E6720636F6D6D61CF
:100E60006E64733A0D0A202058414C20312F303ADD
:100E7000202053746172742F73746F7020737472B6
:100E800065616D696E672066756C6C2D7261746545
:100E900020616E616C6F67206C6967687420736194
:100EA0006D706C6520646174612E0D0A2020584AB3
:100EB0004C20312F303A20205377617073206F72AD
:100EC00020756E2D7377617073206A6F7973746902
:100ED000636B20585920616E64206C6967687420C8
:100EE00073656E736F72204C5220696E70757473E7
:100EF0002E0D0A202058545220312F303A20204500
:100F00006E61626C652F64697361626C65207265E5
:100F100077617264207472696767657265642062C4
:100F20007920726973696E672065646765206F66F2
:100F300020475030302E0D0A202058545420312F95
:100F4000303A2020456E61626C652F64697361627E
:100F50006C652074696D696E67206163746976657C
:100F6000206F6E2068696768206C6576656C206FFD
:100F70006E20475030302E0D0A202058544E20311C
:100F80002F303A2020456E61626C652F6469736171
:100F9000626C65206576656E7420636F646520748D
:100FA0007269676765726564206279207269736926
:100FB0006E672065646765206F6620475030302E6D
:100FC0000D0A20202020584D41206E3A2020456DEA
:100FD0006974206120726973696E67206564676552
:100FE000206F6E2047503031207768656E20616E2B
:100FF000616C6F6720302E2E342028582F592F5ABD
:101000002F4C2F52292072697365732E0D0A2020F0
:101010002020584D4420203A202044697361626C9E
:1010200065204750303120616E616C6F67206469C4
:1010300061676E6F73746963206F75747075742E59
:101040000D0A00646576696365747970653A2049B4
:101050002F4F2053796E6368426F7820207375623A
:10106000747970653A2076312020726576697369EB
:101070006F6E3A2032303231303231310D0A000D8C
:101080000A00222E205479706520223F22206F72A0
:101090002022484C502220666F722068656C702EAA
:1010A0000D0A00556E7265636F676E697A6564201C
:1010B000636F6D6D616E643A20202200C52111249A
:1010C0001FBECFEFD1E2DEBFCDBF00E00CBF12E00C
:1010D000A0E0B2E0E4E3FAE400E00BBF02C0079056
:1010E0000D92A83CB107D9F728E0A8ECB2E001C006
:1010F0001D92A330B207E1F718E0CFE5D8E000E099
:1011000006C021970109802FFE010E941222CE35D0
:10111000D10780E00807A9F70E94D9210C9418256F
:101120000C9400008FB7F8941092C9021092C80274
:1011300010927E0010927D00EAE7F0E097E1908344
:1011400010927B0090EE90937C0097E990838FBF84
:1011500008958091C90281110BC080917A0086FDAB
:1011600007C0809179008093C80281E08093C90212
:101170008091C90208958830910570F4FC01E95B03
:10118000FD4F8081806E80937C001092C902109286
:10119000C80287ED80937A000895FC0181E0808B7E
:1011A0001082118212821382148215821682178293
:1011B00010861186128613868AEA848782E08587E4
:1011C00096E0968787870895FC016587468727877D
:1011D00081E0808B08954F925F926F927F928F9201
:1011E0009F92AF92BF92CF92DF92EF92FF920F93B6
:1011F0001F93CF93DF93FC018089C62ED12CE12C65
:10120000F12CD585C6858823F9F0108A6487D7012B
:10121000C60104C0880F991FAA1FBB1FDA95D2F719
:1012200080839183A283B38304C0CC0CDD1CEE1CAD
:10123000FF1CCA95D2F7C482D582E682F782108657
:10124000118612861386E3C0262FDD2379F061E034
:1012500070E08FEF8D0F2B0102C0440C551C8A9556
:10126000E2F7052C000C6608770803C0412C512CCE
:101270003201CC2309F4DDC021E030E08FEF8C0F88
:10128000490102C0880C991C8A95E2F7092C000CD0
:10129000AA08BB0884819581A681B781880D991D14
:1012A000AA1DBB1D0C2E04C0B695A79597958795D2
:1012B0000A94D2F78C159D05AE05BF0548F4A70129
:1012C0009601281B390B4A0B5B0BCA01B90106C0FA
:1012D000BC01CD016C197D098E099F099B01AC01F0
:1012E0000E94E021AB01BC010C2E04C076956795ED
:1012F000579547950A94D2F7DD2391F1008111812A
:1013000022813381D701C601800F911FA21FB31F15
:10131000040D151D261D371D0D2E04C0369527956D
:10132000179507950A94D2F7801B910BA20BB30B6C
:1013300080839183A283B383840D951DA61DB71D61
:1013400004C0B695A79597958795DA95D2F7C11100
:1013500009C0282F1482158216821782822F56C048
:10136000D701C6010481158126813781C00ED11EA7
:10137000E21EF31E080D191D2A1D3B1D0C2E04C074
:1013800036952795179507950A94D2F7C01AD10A72
:10139000E20AF30AC482D582E682F782CC23B1F155
:1013A000C084D184E284F3848A019B010C0D1D1D4D
:1013B0002E1D3F1DC80CD91CEA1CFB1C0C2E04C0A2
:1013C000F694E794D794C7940A94D2F70C191D09A0
:1013D0002E093F090087118722873387078404C0BD
:1013E00076956795579547950A94D2F7800E911E8A
:1013F000A21EB31E04C0B694A79497948794CA956E
:10140000D2F784169506A606B70608F08487848569
:10141000DF91CF911F910F91FF90EF90DF90CF90D0
:10142000BF90AF909F908F907F906F905F904F9004
:101430000895DD2309F48ECF812C912C540140E0D6
:1014400050E0BA015BCFCF93CFB7F89410926A0304
:101450001092A6031092A2031092A3031092A40369
:101460001092A5031092A10310929D0310929E0367
:1014700010929F031092A0031092990310929A0366
:1014800010929B0310929C031092690310926803C0
:10149000109265031092610310926203109263032D
:1014A000109264031092600310925F0310929803ED
:1014B0001092940310929503109296031092970342
:1014C0001092900310929103109292031092930342
:1014D000109267031092660310925E0310925A03F3
:1014E00010925B0310925C0310925D0310925903FB
:1014F0001092580310928F0310928B0310928C035A
:1015000010928D0310928E0340918B0350918C03A7
:1015100060918D0370918E0380913B0290913C020B
:10152000A0913D02B0913E02840F951FA61FB71FE8
:101530008093870390938803A0938903B0938A03D1
:1015400010925703109256031092530310924F03B8
:10155000109250031092510310925203109286037E
:1015600010928203109283031092840310928503D9
:1015700040918203509183036091840370918503AD
:101580008091330290913402A0913502B0913602DD
:10159000840F951FA61FB71F80937E0390937F0330
:1015A000A0938003B09381031092550310925403CB
:1015B00010924E0310924A0310924B0310924C0368
:1015C00010924D0310927D031092790310927A03CA
:1015D00010927B0310927C03109275031092760395
:1015E0001092770310927803109271031092720395
:1015F000109273031092740310926D0310926E0395
:1016000010926F031092700310926C0310926B0390
:10161000109249031092480310924703109243031B
:101620001092440310924503109246031092420315
:10163000109241031092390310923803109237032D
:101640001092330310923403109235031092360334
:1016500010922F0310923003109231031092320334
:1016600010922B0310922C0310922D0310922E0334
:1016700010922A0310922903109225031092260338
:101680001092270310922803109221031092220334
:1016900010922303109224038FEF9FEF9093CB02BD
:1016A0008093CA020E943A1A60E070E080E090E005
:1016B0000E944F1ACFBFCF9108956F927F928F9261
:1016C0009F92AF92BF92CF92DF92EF92FF920F93D1
:1016D0001F93CF93DF9300D01F92CDB7DEB78091D9
:1016E0006A03811178C511E010936A030E943A1DC4
:1016F0009B01AC016FB678948091000183FD02C01C
:1017000080E08EC08091400381111FC480913E0310
:1017100090913F03892B09F018C48AE090E09093E0
:101720003F0380933E038091AF03882329F080918B
:10173000A103882309F40BC48091AD03882309F425
:1017400004C480917D03811100C46091220269016B
:101750007A01FFEFCF1ADF0AEF0AFF0A8091270212
:1017600090912802A0912902B0912A02662309F4DF
:101770000DC4C0927903D0927A03E0927B03F09279
:101780007C038090790390907A03A0907B03B090C3
:101790007C03C0902B02D0902C02E0902D02F090A0
:1017A0002E02C80CD91CEA1CFB1CC0927103D092FB
:1017B0007203E0927303F0927403C0907103D090AF
:1017C0007203E0907303F09074038C0D9D1DAE1DA9
:1017D000BF1D80936D0390936E03A0936F03B0932E
:1017E0007003C0906D03D0906E03E0906F03F09093
:1017F00070038091230290912402A0912502B09160
:1018000026028C0D9D1DAE1DBF1D80937503909308
:101810007603A0937703B093780381E080937D03F0
:101820009091AE039923A1F1811107C060913E030D
:1018300070913F03672B09F4E6C390918F039111D8
:1018400027C020938B0330938C0340938D035093D8
:101850008E0380908B0390908C03A0908D03B090AA
:101860008E03C0903B02D0903C02E0903D02F0908D
:101870003E02C80CD91CEA1CFB1CC0928703D09204
:101880008803E0928903F0928A0391E090938F039A
:1018900060913E0370913F03672B51F060913E03CE
:1018A00070913F036150710970933F0360933E0351
:1018B00060913E0370913F03672B11F480934003C6
:1018C00080916803909169030197A9F4809199032D
:1018D00090919A03A0919B03B0919C03281739071C
:1018E0004A075B07D0F02D981092690310926803A5
:1018F0001092A10312C08091A103882371F08091FE
:101900009D0390919E03A0919F03B091A00328177F
:1019100039074A075B0708F079C380916603909105
:1019200067030197A9F48091900390919103A0918E
:101930009203B0919303281739074A075B07D0F049
:101940002C9810926703109266031092980312C0AD
:1019500080919803882371F080919403909195036E
:10196000A0919603B0919703281739074A075B07A0
:1019700008F07CC38091560390915703019709F0BA
:101980004CC08091870390918803A0918903B09106
:101990008A03281739074A075B0708F450C02E98B6
:1019A0001092570310925603C0908B03D0908C0373
:1019B000E0908D03F0908E03809137029091380271
:1019C000A0913902B0913A028C0D9D1DAE1DBF1D34
:1019D00080938B0390938C03A0938D03B0938E031D
:1019E000C0908B03D0908C03E0908D03F0908E0319
:1019F00080913B0290913C02A0913D02B0913E0249
:101A00008C0D9D1DAE1DBF1D809387039093880391
:101A1000A0938903B0938A0312C080918F03882317
:101A200071F080918B0390918C03A0918D03B09104
:101A30008E03281739074A075B0708F047C38091D0
:101A4000540390915503019709F04CC080917E0397
:101A500090917F03A0918003B091810328173907EB
:101A60004A075B0708F450C02F9810925503109254
:101A70005403C0908203D0908303E0908403F090DD
:101A8000850380912F0290913002A0913102B09194
:101A900032028C0D9D1DAE1DBF1D8093820390935D
:101AA0008303A0938403B0938503C0908203D090F6
:101AB0008303E0908403F09085038091330290913A
:101AC0003402A0913502B09136028C0D9D1DAE1DE1
:101AD000BF1D80937E0390937F03A0938003B093F8
:101AE000810312C080918603882371F08091820364
:101AF00090918303A0918403B0918503281739073F
:101B00004A075B0708F0FCC28091480390914903A3
:101B100082309105B1F08330910521F0019709F0F1
:101B20008DC04BC08091750390917603A09177038F
:101B3000B0917803281739074A075B0708F4BDC03E
:101B40000DC08091750390917603A0917703B091B9
:101B50007803281739074A075B0750F018B8109226
:101B60000B01109249031092480310927D03A5C007
:101B700080916D0390916E03A0916F03B0917003FB
:101B8000281739074A075B0708F497C080916B0351
:101B900090916C039F7790936C0380936B0380917B
:101BA0006B0390916C0398B980916B0390916C03D7
:101BB00080930B0183E090E0E6C2809171039091E5
:101BC0007203A0917303B0917403281739074A0771
:101BD0005B0708F472C080916B0390916C0390686E
:101BE00090936C0380936B0380916B0390916C03D3
:101BF00098B980916B0390916C0380930B0182E004
:101C000090E0909349038093480381E080934703D9
:101C10008091710390917203A0917303B09174034A
:101C20008093430390934403A0934503B0934603EA
:101C300080916B0390916C039F773BC080917D03F3
:101C4000882309F477C28091710390917203A09167
:101C50007303B0917403281739074A075B0708F428
:101C600069C280916B0390916C0398B980916B036A
:101C700090916C0380930B0182E090E09093490374
:101C80008093480381E08093470380917103909192
:101C90007203A0917303B0917403809343039093F4
:101CA0004403A0934503B093460380916B03909146
:101CB0006C0390934203809341031FB7F8942983E8
:101CC0003A834B835C830E94A9081FBF882309F4D1
:101CD000F0C08091CA029091CB0297FD9FC0809185
:101CE000000290910102E091CA02F091CB02B3E0B0
:101CF000EE0FFF1FBA95E1F7E80FF91FE280F380BE
:101D0000A091CA02B091CB0213E0AA0FBB1F1A9593
:101D1000E1F7A80FB91F14960D911C911597E0914A
:101D2000CA02F091CB0223E0EE0FFF1F2A95E1F7E4
:101D3000E80FF91F86819781E114F10491F10115F3
:101D4000110579F1009769F16091C902662349F1A3
:101D50006091C8020E94EB088093C8028091C8027B
:101D6000F701808329813A814B815C81F8012083CE
:101D70003183428353836091C802E091CA02F0919B
:101D8000CB0270E0A3E0EE0FFF1FAA95E1F7809170
:101D9000000290910102E80FF91F808191810E9459
:101DA000A91A8091CA029091CB0201969093CB021E
:101DB0008093CA028091000290910102A091CA0210
:101DC000B091CB02F3E0AA0FBB1FFA95E1F7A80F81
:101DD000B91F2D913C9137FF27C0A091CA02B09145
:101DE000CB02E3E0AA0FBB1FEA95E1F7A80FB91FEA
:101DF00012962D913C911397232BB1F4E091CA02D6
:101E0000F091CB0273E0EE0FFF1F7A95E1F7E80F38
:101E1000F91F84819581892B39F4BAC11092CB02C4
:101E20001092CA021092A8038091000290910102C0
:101E3000E091CA02F091CB0263E0EE0FFF1F6A95BA
:101E4000E1F7E80FF91F2081318137FD32C0A09101
:101E5000CA02B091CB0253E0AA0FBB1F5A95E1F71B
:101E6000A80FB91F12962D913C911397232B09F1BE
:101E7000A091CA02B091CB0243E0AA0FBB1F4A95C2
:101E8000E1F7A80FB91F14962D913C911597232BBC
:101E900081F0E091CA02F091CB0233E0EE0FFF1F18
:101EA0003A95E1F7E80FF91F86819781892B09F0B0
:101EB00077C18091AC03882369F180913A039091B6
:101EC0003B03892B39F58091AA039091AB030597C9
:101ED00020F01092AB031092AA038091AA03909174
:101EE000AB03880F991FFC01ED5EFD4F0190F0815F
:101EF000E02D7080FC01E95FFD4F0190F081E02D45
:101F000080819181781608F462C18091020180611C
:101F10008093020180913A0390913B03892B49F011
:101F200080913A0390913B03019790933B038093F8
:101F30003A0380913A0390913B03892B11F47092FC
:101F40003C036FBE10926A0346C181E069CC2093C6
:101F50009D0330939E0340939F035093A003809171
:101F60009D0390919E03A0919F03B091A00388517F
:101F70009C4FAF4FBF4F8093990390939A03A093C8
:101F80009B03B0939C031093A103D6CBC09279031B
:101F9000D0927A03E0927B03F0927C03C0907903A5
:101FA000D0907A03E0907B03F0907C03C0927103A1
:101FB000D0927203E0927303F0927403C09079039D
:101FC000D0907A03E0907B03F0907C038C0D9D1DF4
:101FD000AE1DBF1D8093750390937603A093770386
:101FE000B09378038091750390917603A091770365
:101FF000B091780380936D0390936E03A0936F0369
:10200000B09370030ACC10928F0342CC2D9A81E0DA
:1020100090E09093690380936803809365038091B7
:102020009D0390919E03A0919F03B091A003809384
:10203000610390936203A0936303B0936403809160
:10204000990390919A03A0919B03B0919C03C09037
:102050009D03D0909E03E0909F03F090A0038C1905
:102060009D099093600380935F0357CC2C9A81E085
:1020700090E0909367038093660380935E03809162
:10208000940390919503A0919603B0919703809348
:102090005A0390935B03A0935C03B0935D0380911C
:1020A000900390919103A0919203B0919303C090FB
:1020B0009403D0909503E0909603F09097038C19C9
:1020C0009D09909359038093580354CC2E9A81E034
:1020D00090E090935703809356038093530380912D
:1020E0008B0390918C03A0918D03B0918E0380930C
:1020F0004F0390935003A0935103B09352039FCC8E
:102100002F9A81E090E0909355038093540380933D
:102110004E038091820390918303A0918403B09138
:10212000850380934A0390934B03A0934C03B09391
:102130004D03EACC80917D03882309F4BECD8091C4
:10214000790390917A03A0917B03B0917C032817C7
:1021500039074A075B0708F4B0CD80916B03909173
:102160006C039F7790936C0380936B0380916B0358
:1021700090916C0398B980916B0390916C0380935C
:102180000B0181E090E0909349038093480395CD43
:102190001092CB021092CA0281E08093A80344CE31
:1021A0001FB7F894E091CA02F091CB0283E0EE0FE2
:1021B000FF1F8A95E1F78091000290910102E80FDC
:1021C000F91F808191810E94BB081FBF72CE809150
:1021D00002018F7E9DCE0F900F900F900F90DF9198
:1021E000CF911F910F91FF90EF90DF90CF90BF9014
:1021F000AF909F908F907F906F9008952F923F9215
:102200004F925F926F927F928F929F92AF92BF9206
:10221000CF92DF92EF92FF920F931F93CF93DF93B2
:10222000CDB7DEB7AB970FB6F894DEBF0FBECDBF0C
:102230007FB6F8940E943A1D6B017C018091A60341
:10224000882319F18091A2039091A303A091A40384
:10225000B091A503C816D906EA06FB06B0F0409176
:102260003F02509140026091410270914202840FFE
:10227000951FA61FB71F8093A2039093A303A0935B
:10228000A403B093A50321E001C020E040906503C2
:102290004A8240916103509162036091630370919F
:1022A0006403488B598B6A8B7B8B40905F03509003
:1022B00060035D8A4C8A1092650350905E035F86CE
:1022C00040915A0350915B0360915C0370915D03F0
:1022D0004E8B5F8B688F798F4090580350905903D5
:1022E0005E864D8610925E03509053035C8640914B
:1022F0004F035091500360915103709152034F83EB
:10230000588769877A871092530350914E035B87F1
:1023100040914A0350914B0360914C0370914D03DF
:102320004A8F5B8F6C8F7D8F10924E0350914703C5
:102330005E8F409143035091440360914503709137
:1023400046034F8F58A369A37AA3A0904103B0908E
:1023500042038091B103882311F0AB2CBB2410926F
:102360004703509139035983009138031091370383
:102370004090A8034BA21092A80350902A035BA69A
:102380006090290368A68090CE039090CF032090A0
:10239000CC033090CD034091D0035091D1035AA784
:1023A00049A77FBE8091A603811106C069A57AA5C1
:1023B000672B09F44CC044C080913F0290914002C9
:1023C000A0914102B09142022C013D0140945094F1
:1023D000609470944CA25DA26EA27FA24091A20371
:1023E0005091A3036091A4037091A5030097A105E8
:1023F000B105E9F0C416D506E606F706C0F02A01D5
:102400003B01480E591E6A1E7B1E4B825C826D8208
:102410007E824CA05DA06EA07FA04C145D046E0473
:102420007F0428F04B815C816D817E81DFCF4093FA
:10243000A2035093A3036093A4037093A503B6CFA4
:1024400049A55AA54130510519F4140101C04101B3
:10245000222309F4C8C05BA5852F90E077247394EC
:102460008816990608F0712C48A4842D90E0662403
:1024700063942816390608F0612C8091200290910F
:102480002102009719F0019789F16CC088E092E071
:102490000E94B41DC701B6010E942C1F86E092E085
:1024A0000E94B41D89810E946E1F802F0E946E1FA2
:1024B000812F0E946E1F84E092E00E94B41D8BA5C4
:1024C0000E946E1F88A50E946E1F772019F082E07F
:1024D00092E002C080E092E00E94B41D662019F0F4
:1024E0008EEF91E07AC08CEF91E077C088EF91E0B9
:1024F0000E94B41DC701B6010E942C1F80EF91E01D
:102500000E94B41D89810E946E1F8EEE91E00E9490
:10251000B41D802F0E946E1F8CEE91E00E94B41DAE
:10252000812F0E946E1F85EE91E00E94B41D8BA545
:102530000E946E1F83EE91E00E94B41D88A50E9448
:102540006E1F772019F080EE91E002C08DED91E0D2
:102550000E94B41D662019F08AED91E03EC087ED1F
:1025600091E03BC080ED91E00E94B41DC701B6012F
:102570000E942C1F80EC91E00E94B41D89810E9472
:102580006E1F8EEB91E00E94B41D802F0E946E1F83
:102590008CEB91E00E94B41D812F0E946E1F8EEA89
:1025A00091E00E94B41D8BA50E946E1F8CEA91E001
:1025B0000E94B41D88A50E946E1F772019F087EA3B
:1025C00091E002C082EA91E00E94B41D662019F0F9
:1025D0008DE991E002C088E991E00E94B41D85E98F
:1025E00091E00E94B41D5A805520B1F08CE891E032
:1025F0000E94B41D688979898A899B890E942C1F51
:102600008AE891E00E94B41D8C899D890E94541F24
:1026100087E891E00E94B41D6F846620B1F08CE7DA
:1026200091E00E94B41D6E897F89888D998D0E94EA
:102630002C1F8AE791E00E94B41D8D859E850E9423
:10264000541F87E791E00E94B41D7C84772071F0CD
:102650008FE691E00E94B41D6F81788589859A8507
:102660000E942C1F8CE691E00E94B41D2B85222332
:1026700071F082E691E00E94B41D6A8D7B8D8C8D95
:102680009D8D0E942C1F8FE591E00E94B41D4E8D00
:102690004423A9F088E591E00E94B41D6F8D78A1D4
:1026A00089A19AA10E942C1F86E591E00E94B41D89
:1026B000C5010E94541F83E591E00E94B41D8091E2
:1026C000B003882341F15BA1552329F1C6010E9483
:1026D000541F8BA50E946E1F88A50E946E1F80E567
:1026E00091E0AB960FB6F894DEBF0FBECDBFDF9181
:1026F000CF911F910F91FF90EF90DF90CF90BF90FF
:10270000AF909F908F907F906F905F904F903F9091
:102710002F900C94B41DAB960FB6F894DEBF0FBE8D
:10272000CDBFDF91CF911F910F91FF90EF90DF9080
:10273000CF90BF90AF909F908F907F906F905F9061
:102740004F903F902F9008950F931F93CF93DF9357
:10275000C82FD62F142F0FB7F894242F462F682F89
:1027600080E193E00E94E408212F4D2F6C2F8FEF22
:1027700092E00E94E408212F4D2F6C2F8EEE92E004
:102780000E94E408212F4D2F6C2F8DED92E00E94C6
:10279000E408212F4D2F6C2F8CEC92E00E94E4086E
:1027A0000FBFDF91CF911F910F910895882399F06A
:1027B0008FE492E09093010280930002109246020F
:1027C0001092450281E090E090934402809343028E
:1027D0008093A70308958FE792E09093010280937E
:1027E000000284E090E0909346028093450285E0E9
:1027F00090E090934402809343021092A7030895BF
:10280000259A249A269A279A9D9A2D982C982E9844
:102810002F98A59A18B810920B018FEF87B9809363
:102820000A01A1E0B1E08C91877F8C93E2E0F1E0B6
:102830008081886080838C9180618C9380818F7E81
:10284000808380E00C94D61381E08093A90320E07C
:1028500032EC41E050E060E074E284EF90E00E94EE
:1028600080200C94F61BCF93DF930E944C1DEC014B
:10287000892B91F08091A903882339F0CE010E9421
:10288000991D8FE790E10E94B41DCE010E94F41CB7
:10289000DF91CF910C94641DDF91CF9108958FE962
:1028A00097E00C94B41D3F924F925F926F927F928B
:1028B0008F929F92AF92BF92CF92DF92EF92FF9250
:1028C0000F931F93CF93DF938FB7F89440908F03AC
:1028D00050908603E090CE03F090CF030091CC039C
:1028E0001091CD03A090D003B090D103C091AA0362
:1028F0009090AC03D091AD03D090AE03C090AF03E5
:1029000070901D0280901E0260901F023090A603FE
:102910008FBF87E797E00E94B41D80E697E00E9492
:10292000B41D81E597E00E94B41D0E942E1D0E94F7
:10293000CC1E88E497E00E94B41D8CE297E00E94D0
:10294000B41D60E177E280E090E00E94CC1E89E255
:1029500097E00E94B41D89E197E00E94B41D8DE0CC
:1029600097E00E94B41D87EF96E00E94B41D8BEEA5
:1029700096E00E94B41D89ED96E00E94B41D8DEC96
:1029800096E00E94B41D87EB96E00E94B41D8BEA8E
:1029900096E00E94B41D80E996E00E94B41D85E88F
:1029A00096E00E94B41D89E696E00E94B41D8EE573
:1029B00096E00E94B41D8BE596E00E94B41D332082
:1029C00019F08AE496E002C088E396E00E94B41D04
:1029D00086E296E00E94B41D60913F027091400231
:1029E00080914102909142020E94CC1E8DE196E0BE
:1029F0000E94B41D8091200290912102009729F03D
:102A0000019731F48CEE95E005C082E096E002C0BB
:102A100087ED95E00E94B41D442019F087EC95E005
:102A200002C086EB95E00E94B41D87E995E00E9404
:102A3000B41D60913B0270913C0280913D029091E7
:102A40003E020E94CC1E83E995E00E94B41D609175
:102A50003702709138028091390290913A020E94B7
:102A6000CC1E8AE895E00E94B41D552019F086E737
:102A700095E002C081E695E00E94B41D8EE395E0EA
:102A80000E94B41D6091330270913402809135022E
:102A9000909136020E94CC1E8AE395E00E94B41DFC
:102AA00060912F0270913002809131029091320238
:102AB0000E94CC1E81E395E00E94B41D8EEF94E04D
:102AC0000E94B41D60912B0270912C0280912D0206
:102AD00090912E020E94CC1E8AEF94E00E94B41DB9
:102AE00060912702709128028091290290912A0218
:102AF0000E94CC1E86EF94E00E94B41D60912302D8
:102B00007091240280912502909126020E94CC1E91
:102B10008DEE94E00E94B41D80912202882319F06A
:102B200082ED94E002C086EB94E00E94B41D809197
:102B3000B103882319F082E994E002C08EE694E0A4
:102B40000E94B41D84E494E00E94B41DB70180E0AB
:102B500090E00E94CC1E80E494E00E94B41DB80175
:102B600080E090E00E94CC1E8DE394E00E94B41DB2
:102B700081E0A816B10419F48AE194E007C0AB28FB
:102B800019F486EF93E002C08CEC93E00E94B41D30
:102B90008091A703882321F088E993E00E94B41D67
:102BA00087E793E00E94B41D89E593E00E94B41D7D
:102BB000611003C083E593E019C0662D70E080E0EA
:102BC00090E00E94CC1E8DE393E00E94B41D61E072
:102BD00070E002C0660F771F6A94E2F7072E000CC0
:102BE000880B990B0E94CC1E81E393E00E94B41DD8
:102BF00085E193E00E94B41D811003C08DE093E055
:102C00003CC089EF92E00E94B41D682D70E080E026
:102C100090E00E94CC1E83EE92E00E94B41D01E081
:102C200010E0B80102C0660F771F8A94E2F7072E02
:102C3000000C880B990B0E94CC1E87ED92E00E943D
:102C4000B41D86EB92E00E94B41D672D70E080E019
:102C500090E00E94CC1E83EB92E00E94B41DB8016C
:102C600002C0660F771F7A94E2F7072E000C880BDC
:102C7000990B0E94CC1E8EEA92E00E94B41D83E95B
:102C800092E00E94B41DCC2021F08DE892E00E94D9
:102C9000B41DDD2021F087E892E00E94B41DDD2301
:102CA00021F081E892E00E94B41DC11008C0D1104B
:102CB00006C0D11104C08AE792E00E94B41D87E7E4
:102CC00092E00E94B41D85E592E00E94B41D992017
:102CD00079F0C53050F4EC2FF0E0EE5FFD4F8081CD
:102CE0000E94B91E82E592E005C08AE492E002C02B
:102CF00083E492E00E94B41D84E292E00E94B41D3D
:102D0000609111027091120280E090E00E94CC1E4E
:102D100081E292E00E94B41D8AE092E0DF91CF91BF
:102D20001F910F91FF90EF90DF90CF90BF90AF90E9
:102D30009F908F907F906F905F904F903F900C94FA
:102D4000B41DFF920F931F93CF93DF93DC01EC919F
:102D50000E2FEE0F110B220B330BF801FF97EA3108
:102D6000F10508F075C3EB018827EE58FF4F8F4F30
:102D70000C9412220E944F1402C00E94531480E04F
:102D800068C3442309F464C3CD2B19F41092A9033A
:102D9000F6CF81E08093A903F2CF11968C91843411
:102DA00029F483E490E10E94B41DE9CF8E3409F048
:102DB0004FC3CFB7F8940E94230A0E94221D0E949D
:102DC0000014CFBF2CC1442309F442C311968C9147
:102DD000893461F4CB01A0E0B0E080933F0290938E
:102DE0004002A0934102B0934202C9CF8635B1F4AC
:102DF000CD2B29F41092210210922002C0CF613015
:102E0000710539F082E090E09093210280932002D6
:102E1000B6CF7093210260932002B1CF8F3409F0B6
:102E200017C3CD2B71F00E942E1D6093A2037093E7
:102E3000A3038093A4039093A50381E08093A6034A
:102E40009ECF1092A6039BCF442309F401C3119691
:102E50008C911197803519F512968C91873571F404
:102E60008FB7F894AB0160E070E040933B02509361
:102E70003C0260933D0270933E0234C1803509F0FC
:102E8000E7C28FB7F894AB0160E070E0409337027F
:102E9000509338026093390270933A0223C182340E
:102EA00019F512968C91873571F48FB7F894AB01B0
:102EB00060E070E040933302509334026093350237
:102EC000709336020FC1803509F0C2C28FB7F894F3
:102ED000AB0160E070E040932F02509330026093AA
:102EE000310270933202FEC0893409F0B1C21296E9
:102EF0008C918D3489F51FB7F894CD2B51F10E9438
:102F00003A1D60938B0370938C0380938D03909391
:102F10008E0340918B0350918C0360918D037091CF
:102F20008E0380913B0290913C02A0913D02B091B2
:102F30003E02840F951FA61FB71F809387039093AF
:102F40008803A0938903B0938A0381E080938F0361
:102F500065C010928F0362C0823409F079C21FB736
:102F6000F894CD2B51F10E943A1D60938203709327
:102F7000830380938403909385034091820350914F
:102F80008303609184037091850380913302909153
:102F90003402A0913502B0913602840F951FA61F0E
:102FA000B71F80937E0390937F03A0938003B09319
:102FB000810381E08093860331C0109286032EC086
:102FC000442309F445C212968C91843449F51FB705
:102FD000F8948091A103811121C00E943A1D609351
:102FE0009D0370939E0380939F039093A003809111
:102FF0009D0390919E03A0919F03B091A0038C0F1D
:103000009D1FA11DB11D8093990390939A03A093D6
:103010009B03B0939C0381E08093A1031FBFAFCEBD
:10302000823409F015C21FB7F8948091980381117A
:10303000F5CF0E943A1D609394037093950380939B
:103040009603909397038091940390919503A09198
:103050009603B09197038C0F9D1FA11DB11D809306
:10306000900390939103A0939203B093930381E014
:1030700080939803D3CF442309F4EAC111968C912D
:103080001197833501F512968C91853459F48FB7D9
:10309000F894CD2B19F41092220224C091E0909361
:1030A000220220C0853509F0D3C18FB7F894AB0157
:1030B00060E070E040932B0250932C0260932D024D
:1030C00070932E020FC0883479F48FB7F894AB0157
:1030D00060E070E040932302509324026093250245
:1030E000709326028FBF9BCF803571F48FB7F89411
:1030F000AB0160E070E04093270250932802609398
:10310000290270932A02EECF853409F0CEC0FFB6B3
:10311000F894162F002780917D038111C4C08091FF
:103120002202882309F464C00E943A1DDC01CB010D
:103130000196A11DB11D8093790390937A03A0930A
:103140007B03B0937C034091790350917A036091A3
:103150007B0370917C0380912B0290912C02A091B3
:103160002D02B0912E02840F951FA61FB71F8093CA
:10317000710390937203A0937303B093740340910F
:103180007103509172036091730370917403809185
:10319000270290912802A0912902B0912A02840F5F
:1031A000951FA61FB71F80936D0390936E03A09386
:1031B0006F03B093700340916D0350916E03609163
:1031C0006F03709170038091230290912402A0916B
:1031D0002502B0912602840F951FA61FB71F80936A
:1031E000750390937603A0937703B09378034BC055
:1031F0000E943A1DDC01CB010196A11DB11D8093F7
:10320000790390937A03A0937B03B0937C0380911E
:10321000790390917A03A0917B03B0917C03809312
:10322000710390937203A0937303B093740340915E
:10323000790350917A0360917B0370917C038091B4
:10324000270290912802A0912902B0912A02840FAE
:10325000951FA61FB71F8093750390937603A093C5
:103260007703B09378038091750390917603A091D2
:103270007703B091780380936D0390936E03A093CE
:103280006F03B09370038091B103882329F01093EA
:103290006C0300936B0304C0D0936C03C0936B0367
:1032A00081E080937D03FFBEBACE843409F0D0C0A4
:1032B0006830710521F481E08093B10360CD603105
:1032C000710509F0C5C01092B10359CD1FB7F8942C
:1032D00011968C9111978335C1F412968C91823599
:1032E00029F41092D1031092D00321C08C3419F428
:1032F00081E090E005C0893409F04FC082E090E0A1
:103300009093D1038093D00312C0813491F444236D
:1033100009F443C012968C918F3419F481E090E047
:1033200004C08634D1F582E090E00E944F1A80E01C
:1033300035C08435E1F7442381F112968C918235B2
:1033400029F47093CD036093CC03F1CF8C3429F52D
:103350007093CF036093CE03EACF442309F478C07F
:103360006930710510F0C8E0D0E01FB7F8941196ED
:103370008C911197893419F4C0931F0272C0833560
:1033800061F412968C91843519F4C0931D0269C0C2
:10339000873519F4C0931E0264C081E01FBF57C077
:1033A000442309F455C011968C911197813449F446
:1033B000CD2B19F41092B003E2CC81E08093B003DE
:1033C000DECC8A3441F4CD2B11F480E001C081E0E1
:1033D0000E94D613D4CC8435F9F49FB7F894129692
:1033E0008C91823539F481E0CD2B09F480E0809313
:1033F000AF0329C0843539F481E0CD2B09F480E096
:103400008093AE0320C08E3401F581E0CD2B09F40A
:1034100080E08093AD0317C08D34D1F49FB7F8944A
:1034200012968C91843419F41092AC030CC0813440
:1034300061F46530710548F47093AB036093AA039F
:1034400081E08093AC0380E001C081E09FBF01C0B8
:1034500081E091E08927DF91CF911F910F91FF903B
:10346000089540911D0260911E0280911F020E94EA
:10347000A4135DCF8FEF9FEF9093CF038093CE0384
:103480009093CD038093CC031092CB031092CA0388
:1034900082E090E09093D1038093D0030895CF927F
:1034A000DF92EF92FF929093CB038093CA03892B14
:1034B00011F460E070E06B01E12CF12CC092C603C6
:1034C000D092C703E092C803F092C9030E943A1D4C
:1034D0006093C2037093C3038093C4039093C503A6
:1034E0008091C2039091C303A091C403B091C5031E
:1034F000C80ED91EEA1EFB1EC092C203D092C3039F
:10350000E092C403F092C5031092BE031092BF0371
:103510001092C0031092C1031092BA031092BB0321
:103520001092BC031092BD031092B6031092B70321
:103530001092B8031092B9031092B2031092B30321
:103540001092B4031092B503FF90EF90DF90CF90EC
:1035500008950F931F93CF93DF938C01EB0180911C
:10356000CA039091CB03892B09F41DC18091C2033A
:103570009091C303A091C403B091C50328173907E4
:103580004A075B0708F4ABC08091BA039091BB0374
:10359000A091BC03B091BD03892B8A2B8B2B31F1F9
:1035A0002091BA033091BB034091BC035091BD03FD
:1035B0006091BE037091BF038091C0039091C103DD
:1035C0000E94F0212093BE033093BF034093C003B9
:1035D0005093C1038091BE039091BF03A091C0039B
:1035E000B091C1039093CF038093CE038091BA032F
:1035F0009091BB03A091BC03B091BD03892B8A2B92
:103600008B2B31F12091B2033091B3034091B4037D
:103610005091B5036091B6037091B7038091B803E0
:103620009091B9030E94F0212093B6033093B70321
:103630004093B8035093B9038091B6039091B703B8
:10364000A091B803B091B9039093CD038093CC03BC
:103650001092BE031092BF031092C0031092C103D8
:103660001092BA031092BB031092BC031092BD03D8
:103670001092B6031092B7031092B8031092B903D8
:103680001092B2031092B3031092B4031092B503D8
:103690008091CA039091CB03019729F41092CB0338
:1036A0001092CA031CC08091C6039091C703A091D9
:1036B000C803B091C9034091C2035091C303609104
:1036C000C4037091C503480F591F6A1F7B1F4093A5
:1036D000C2035093C3036093C4037093C5038091E6
:1036E000CA039091CB03892B09F45DC080914502F8
:1036F000909146028017910741F58091BE03909109
:10370000BF03A091C003B091C1038C0F9D1FA11DE9
:10371000B11D8093BE039093BF03A093C003B093E9
:10372000C1038091BA039091BB03A091BC03B091F7
:10373000BD030196A11DB11D8093BA039093BB03F5
:10374000A093BC03B093BD032EC08091430290911F
:1037500044028017910739F58091B6039091B70321
:10376000A091B803B091B9038C0F9D1FA11DB11D8D
:103770008093B6039093B703A093B803B093B903B3
:103780008091B2039091B303A091B403B091B503BB
:103790000196A11DB11D8093B2039093B303A09332
:1037A000B403B093B503DF91CF911F910F910895AA
:1037B0000E9492080E94230A0E9400140E9424146E
:1037C0000C94141D0E9433140C94FE10E7EDF3E0EA
:1037D0001082118212821092D6031092D20310929C
:1037E000D3031092D4031092D50308950C94E61BD2
:1037F0008F929F92AF92BF92CF92DF92EF92FF9201
:103800000F931F93CF93DF931F921F92CDB7DEB715
:1038100089839A830E94E61B8981082F9A81192F38
:10382000B12C812C912CE0E0F0E0AA24A394D801E3
:103830006D918D01662309F47FC0E230F10511F12D
:1038400034F4309759F0E130F105A1F038C0E3309D
:10385000F105E9F0E430F10509F131C0862F8F7DE3
:1038600081548A31F0F0613254F16F33E9F4BB24B2
:10387000B3941AC0862F8F7D81548A3100F1613252
:10388000B4F012C080ED860F8A30A0F007C080ED42
:10389000860F8A30A0F0613284F006C061327CF07D
:1038A00003C0E1E0F0E00BC0E5E0F0E008C0E2E0DA
:1038B000F0E005C0E3E0F0E002C0E4E0F0E0E13079
:1038C000F10531F1E330F10509F0B1CFA092D60353
:1038D00080ED860FC82E880FDD08EE08FF082091C6
:1038E000D2033091D3034091D4035091D503AAE081
:1038F000B0E00E941A22C60ED71EE81EF91EC09222
:10390000D203D092D303E092D403F092D5038FCFA9
:103910008FE9860F8A3108F4605283E0881691049B
:1039200044F4D401A952BC4F6C93AFEF8A1A9A0A9F
:103930007ECFE5E0F0E07BCFBB2061F00E94E61B8C
:1039400088E48093D7038CE48093D80380E5809348
:10395000D90310C0309749F0B3E08B16910441F0C1
:103960000E94E61B82E090E007C080E090E004C087
:103970003597B1F381E090E00F900F90DF91CF91F8
:103980001F910F91FF90EF90DF90CF90BF90AF907D
:103990009F908F9008950F931F93CF93DF93D82F0D
:1039A000C92F83EA90E10E94B41D0D2F1C2FF8014E
:1039B000C1918F01CC2381F080EE8C0F8F3510F4F4
:1039C0008C2F07C08CE30E94B91E8C2F0E946E1FA3
:1039D0008EE30E94B91EEBCF82E890E1DF91CF9198
:1039E0001F910F910C94B41DCF93DF930097C9F0F2
:1039F000EC010E94F81B8130910589F46091D2039B
:103A00007091D3034091D60387ED93E00E94A116F5
:103A1000811107C0CE01DF91CF910C94CB1C02978E
:103A2000C9F3DF91CF91089520E137E240E050E003
:103A300060E074E284EF90E00E94E31F8DE59BE07C
:103A40000C94431D8FB7F8941092DC031092DD03A1
:103A50001092DE031092DF038FBF08952FB7F89402
:103A60006091DC037091DD038091DE039091DF03B0
:103A70002FBF08956091DC037091DD038091DE0318
:103A80009091DF0308959C019FB7F8943093DB0376
:103A90002093DA039FBF08952FB7F8948091FA031B
:103AA0009091FB039695982F88279795879582503C
:103AB0009C4F4091FC035091FD031416150614F021
:103AC00080E090E02FBF08954FB7F8942091FC0359
:103AD0003091FD038091FA039091FB0312161306B7
:103AE00014F04FBF0895215031093093FD03209306
:103AF000FC030196877099279093FB038093FA0348
:103B0000F0CF9FB7F89481E02091F4033091F50352
:103B1000232B09F480E09FBF0895CF93C8EC0E9447
:103B2000811D882321F08C2F8A95F1F7F8CFCF9152
:103B300008951F93CF93DF93EC010E948D1D209772
:103B400079F01FB7F894D093F503C093F403109263
:103B5000F3031092F2031092F1030E945B211FBF46
:103B6000DF91CF911F9108951F93CF93DF93EC01C5
:103B70000E948D1D209781F01FB7F894D093F50314
:103B8000C093F4031092F3031092F20381E0809348
:103B9000F1030E945B211FBFDF91CF911F91089518
:103BA00080E090E0FC01F695FE2FEE27F795E79573
:103BB000E250FC4F108201968830910599F71092DF
:103BC000FD031092FC031092FB031092FA03109273
:103BD000F9031092F8031092F7031092F603109273
:103BE000F5031092F4031092F3031092F203109273
:103BF000F1031092F00308959091FE07992319F0B4
:103C00008A3019F476C08A3019F08D3009F04EC030
:103C10009091F0032091F6033091F703992321F05E
:103C20002115310509F45FC02038310534F02FE744
:103C300030E03093F7032093F6032091F80330919E
:103C4000F903F901F695FE2FEE27F795E795E25077
:103C5000FC4F4091F6035091F703E40FF51F1082DB
:103C60004091FC035091FD034730510574F42F5FE0
:103C70003F4F277033273093F9032093F8034F5FAA
:103C80005F4F5093FD034093FC03E091F803F091E4
:103C9000F903F695FE2FEE27F795E795E250FC4FD6
:103CA00010821092F7031092F6031DC02091F603C4
:103CB0003091F70320383105E4F4E091F803F091F6
:103CC000F903F695FE2FEE27F795E795A9014250E7
:103CD0005C4FE40FF51F80832F5F3F4F3093F70356
:103CE0002093F60306C08D3021F481E08093FE0717
:103CF00008951092FE070895DC014091F40350915D
:103D0000F5034115510559F18091F1032091F2031A
:103D10003091F303882351F0420F531F052E000CFE
:103D2000660B770B6BBFFA01479104C0FA01E20FF3
:103D3000F31F408141110BC01092F5031092F40360
:103D40001092F3031092F2031092F10309C02F5F57
:103D50003F4F3093F3032093F20381E002C040E031
:103D600080E04C9308959FB7F8948093F0039FBF31
:103D70000895CF93DF931F92CDB7DEB789830E945A
:103D80008D1DE0EEF3E0898180831182CF010F90D9
:103D9000DF91CF910C94991DCF93DF9300D01F92A8
:103DA000CDB7DEB769837A838B839C830E948D1D98
:103DB0009C819F938B818F937A817F9369816F938D
:103DC0008FEB92E09F938F931F9280E18F9380EE11
:103DD00093E09F938F930E9434220FB6F894DEBF36
:103DE0000FBECDBF80EE93E00F900F900F900F901D
:103DF000DF91CF910C94991DCF93DF9300D01F9248
:103E0000CDB7DEB769837A838B839C830E948D1D37
:103E10009C819F938B818F937A817F9369816F932C
:103E200083EC92E09F938F931F9280E18F9380EEBB
:103E300093E09F938F930E9434220FB6F894DEBFD5
:103E40000FBECDBF80EE93E00F900F900F900F90BC
:103E5000DF91CF910C94991DCF93DF9300D01F92E7
:103E6000CDB7DEB7AB01BC0149835A836B837C833A
:103E70000E948D1DE0EEF3E07C816B815A814981C7
:103E8000119283E0E03FF807D9F728E080EE93E055
:103E90000E948E1F80EE93E00F900F900F900F9076
:103EA000DF91CF910C94991DCF93DF93EC010E9489
:103EB0008D1DE0EEF3E0119283E0E03FF807D9F7C3
:103EC000AE0160E070E024E080EE93E00E948E1F7F
:103ED00080EE93E0DF91CF910C94991DCF93DF9307
:103EE0001F92CDB7DEB789830E948D1DE0EEF3E00F
:103EF0008981119293E0E03FF907D9F7482F50E00C
:103F000060E070E022E080EE93E00E948E1F80EE81
:103F100093E00F90DF91CF910C94991DCF92DF9297
:103F2000EF92FF922223C1F02150FC01E20FF11D1C
:103F30006A017B013FE0C322DD24EE24FF24D60189
:103F4000A155BD4F3C91308334E0769567955795E8
:103F500047953A95D1F7E6CFFF90EF90DF90CF905D
:103F60000895F89415BE11B814B817B81AB81DB84A
:103F700010BA13BA109201011092040110920701B5
:103F800010920A0112B815B818B81BB81EB811BAA9
:103F900014BA1092020110920501109208011092B9
:103FA0000B0120E030E0A90160E070E0CB010E944D
:103FB000E31F20E030E0A90160E070E0CB010E9447
:103FC00080207894089510926E0010926F001092E5
:103FD0007000109271001092720010927300E2E073
:103FE000E4BD15BCE093B0001092B10010928000C7
:103FF000E8E0E093810010929000E093910010922D
:10400000A000E093A10010922001E0932101109202
:10401000DC031092DD031092DE031092DF03109296
:10402000DB031092DA03211531054105510539F101
:104030000E94F021211531054105510571F02150F3
:104040003109410951092115310581E04807510520
:1040500020F02FEF3FEF40E050E0BB27A52F942F3B
:10406000832F80932901209328011092250110921B
:10407000240189E08093210182E0809373000895F8
:104080001F920F920FB60F9211240BB60F922F931F
:104090003F934F935F936F937F938F939F93AF93D0
:1040A000BF93EF93FF938091DC039091DD03A09188
:1040B000DE03B091DF030196A11DB11D8093DC03E7
:1040C0009093DD03A093DE03B093DF03E091DA0366
:1040D000F091DB03309709F01995FF91EF91BF91B3
:1040E000AF919F918F917F916F915F914F913F9190
:1040F0002F910F900BBE0F900FBE0F901F90189531
:104100004F925F926F927F928F929F92AF92BF92E7
:10411000CF92DF92EF92FF92CF93DF93CDB7DEB7CE
:1041200028970FB6F894DEBF0FBECDBF2B013C0120
:1041300049015A012115310541055105A1F410929B
:10414000FF071092000810920108109202088FB722
:10415000F89492E09093C0001092C10096E0909382
:10416000C2008FBF8AC0E3E0220F331F441F551FD8
:10417000EA95D1F70E94F02169017A01232B242BC3
:10418000252B89F081E0C81AD108E108F108C11493
:1041900090E1D906E104F10430F0CC24CA947FE028
:1041A000D72EE12CF12CD701C6010196A11DB11D1E
:1041B00089839A83AB83BC839C01AD0163E0220FAA
:1041C000331F441F551F6A95D1F7C301B2010E94E6
:1041D000F0212D833E834F8358872093FF07309330
:1041E000000840930108509302089FEFC9169FE012
:1041F000D906E104F10479F1D701C6010296A11DA7
:10420000B11D9C01AD0193E0220F331F441F551FC8
:104210009A95D1F7C301B2010E94F0214D805E80D2
:104220006F807884481859086A087B08821A930AB4
:10423000A40AB50A84149504A604B70460F4209374
:10424000FF07309300084093010850930208C9808B
:10425000DA80EB80FC80BFB6F8941092C100BB27D7
:10426000AF2D9E2D8D2D8093C500C092C4000E945D
:10427000D01D88E98093C100BFBE28960FB6F89480
:10428000DEBF0FBECDBFDF91CF91FF90EF90DF90EB
:10429000CF90BF90AF909F908F907F906F905F90E6
:1042A0004F9008956091FF07709100088091010878
:1042B00090910208089588EB8093C10008951F92A1
:1042C0000F920FB60F9211240BB60F922F933F93BC
:1042D0004F935F936F937F938F939F93AF93BF930E
:1042E000EF93FF938091C6000E94FC1DFF91EF9118
:1042F000BF91AF919F918F917F916F915F914F91FE
:104300003F912F910F900BBE0F900FBE0F901F90FB
:1043100018951F920F920FB60F9211240BB60F92A1
:104320002F933F934F935F936F937F938F939F93BD
:10433000AF93BF93EF93FF93CF93DF931F92CDB7CC
:10434000DEB71982CE0101960E947C1E882321F0DF
:1043500089818093C60003C088E98093C1000F90D3
:10436000DF91CF91FF91EF91BF91AF919F918F918D
:104370007F916F915F914F913F912F910F900BBE65
:104380000F900FBE0F901F90189580E193E00E9450
:10439000CD088FEF92E00E94CD088EEE92E00E9451
:1043A000CD088DED92E00E94CD088CEC92E00C944B
:1043B000CD080E94B11F0E94D81B0E94E21BFDCFB6
:1043C000DB018F939F930E941A22BF91AF91A29F0E
:1043D000800D911DA39F900DB29F900D1124089503
:1043E000A1E21A2EAA1BBB1BFD010DC0AA1FBB1FF9
:1043F000EE1FFF1FA217B307E407F50720F0A21B6B
:10440000B30BE40BF50B661F771F881F991F1A94D7
:1044100069F760957095809590959B01AC01BD0101
:10442000CF010895EE0FFF1F881F8BBF0790F691F5
:10443000E02D19940E942522A59F900DB49F900D08
:10444000A49F800D911D11240895A29FB001B39FD8
:10445000C001A39F700D811D1124911DB29F700D8D
:10446000811D1124911D08950F931F93CF93DF9306
:10447000CDB7DEB72E970FB6F894DEBF0FBECDBF17
:104480000E891F89888D998D26E02C831A830983D4
:1044900097FF02C080E090E801979E838D83AE0174
:1044A000445E5F4F6A8D7B8DCE0101960E94712222
:1044B0004D815E8157FD0AC02F8138854217530711
:1044C0000CF49A01F801E20FF31F10822E960FB63A
:1044D000F894DEBF0FBECDBFDF91CF911F910F913A
:1044E00008952F923F924F925F926F927F928F9298
:1044F0009F92AF92BF92CF92DF92EF92FF920F9373
:104500001F93CF93DF93CDB7DEB72C970FB6F894F8
:10451000DEBF0FBECDBF7C016B018A01FC0117829B
:104520001682838181FFBDC1CE0101964C01F70146
:104530009381F60193FD859193FF81916F0188230B
:1045400009F4ABC1853239F493FD859193FF8191D4
:104550006F01853229F4B70190E00E948224E7CFF1
:10456000512C312C20E02032A0F48B3269F030F451
:10457000803259F0833269F420612CC08D3239F0D9
:10458000803339F4216026C02260246023C0286073
:1045900021C027FD27C030ED380F3A3078F426FFD0
:1045A00006C0FAE05F9E300D1124532E13C08AE03E
:1045B000389E300D1124332E20620CC08E3221F42F
:1045C00026FD6BC1206406C08C3611F4206802C041
:1045D000883641F4F60193FD859193FF81916F0137
:1045E0008111C1CF982F9F7D9554933028F40C5F93
:1045F0001F4FFFE3F9830DC0833631F0833771F02D
:10460000833509F05BC022C0F801808189830E5F89
:104610001F4F44244394512C540115C03801F2E03B
:104620006F0E711CF801A080B18026FF03C0652DBC
:1046300070E002C06FEF7FEFC5012C870E947724E6
:104640002C0183012C852F77222E17C03801F2E030
:104650006F0E711CF801A080B18026FF03C0652D8C
:1046600070E002C06FEF7FEFC5012C870E946C24C1
:104670002C012C852068222E830123FC1BC0832D56
:1046800090E048165906B0F4B70180E290E00E942D
:1046900082243A94F4CFF50127FC859127FE81917D
:1046A0005F01B70190E00E94822431103A94F1E05A
:1046B0004F1A51084114510471F7E5C0843611F0C6
:1046C000893639F5F80127FF07C060817181828141
:1046D00093810C5F1F4F08C060817181072E000C11
:1046E000880B990B0E5F1F4F2F76722E97FF09C014
:1046F00090958095709561957F4F8F4F9F4F206863
:10470000722E2AE030E0A4010E94BA24A82EA81834
:1047100044C0853729F42F7EB22E2AE030E025C030
:10472000F22FF97FBF2E8F36C1F018F4883579F05B
:10473000B4C0803719F0883721F0AFC02F2F206127
:10474000B22EB4FE0DC08B2D8460B82E09C024FF9C
:104750000AC09F2F9660B92E06C028E030E005C041
:1047600020E130E002C020E132E0F801B7FE07C0EE
:1047700060817181828193810C5F1F4F06C06081CF
:10478000718180E090E00E5F1F4FA4010E94BA2467
:10479000A82EA818FB2DFF777F2E76FE0BC0372D95
:1047A0003E7FA51450F474FE0AC072FC08C0372D79
:1047B0003E7E05C0BA2C372D03C0BA2C01C0B52CE3
:1047C00034FF0DC0FE01EA0DF11D8081803311F42C
:1047D000397E09C032FF06C0B394B39404C0832F5E
:1047E000867809F0B39433FD13C030FF06C05A2C0D
:1047F000B31418F4530C5B18B32CB31468F4B7015A
:1048000080E290E03C870E948224B3943C85F5CFFF
:10481000B31410F43B1801C0312C34FF12C0B7019F
:1048200080E390E03C870E9482243C8532FF17C0E1
:1048300031FD03C088E790E002C088E590E0B70151
:104840000CC0832F867859F031FF02C08BE201C083
:1048500080E237FD8DE2B70190E00E948224A5142A
:1048600038F4B70180E390E00E9482245A94F7CF95
:10487000AA94F401EA0DF11D8081B70190E00E9435
:104880008224A110F5CF332009F451CEB70180E284
:1048900090E00E9482243A94F6CFF70186819781B6
:1048A00002C08FEF9FEF2C960FB6F894DEBF0FBEBD
:1048B000CDBFDF91CF911F910F91FF90EF90DF90CF
:1048C000CF90BF90AF909F908F907F906F905F90B0
:1048D0004F903F902F900895FC01059061507040DB
:1048E0000110D8F7809590958E0F9F1F0895FC01B9
:1048F0006150704001900110D8F7809590958E0F0F
:104900009F1F08950F931F93CF93DF93FB01238184
:1049100021FD03C08FEF9FEF28C022FF16C0468104
:104920005781248135814217530744F4A081B18116
:104930009D012F5F3F4F318320838C9326813781E8
:104940002F5F3F4F3783268310C0EB01092F182FAD
:104950000084F185E02D1995892BE1F68E819F81E8
:1049600001969F838E83812F902FDF91CF911F918E
:104970000F910895FA01AA27283051F1203181F1D1
:10498000E8946F936E7F6E5F7F4F8F4F9F4FAF4F57
:10499000B1E03ED0B4E03CD0670F781F891F9A1F6A
:1049A000A11D680F791F8A1F911DA11D6A0F711D1E
:1049B000811D911DA11D20D009F468943F912AE02A
:1049C000269F11243019305D3193DEF6CF01089512
:1049D000462F4770405D4193B3E00FD0C9F7F6CF43
:1049E000462F4F70405D4A3318F0495D31FD40520B
:1049F000419302D0A9F7EACFB4E0A69597958795A1
:104A000077956795BA95C9F700976105710508957F
:104A10009B01AC010A2E069457954795379527952B
:104A2000BA95C9F7620F731F841F951FA01D0895C3
:044A3000F894FFCF28
:104A34007F0258595A4C52110211021102CE03CC72
:104A4400037F003903380337032A032903020602CC
:104A54000200010200000002000000020000001039
:104A64002700000A000000102700000A000000646C
:104A74000000000500040000010203040506070409
:104A840000390333031003050038032F03FF020228
:104A94000037032B03EE0200002A032503DD020185
:104AA4000029032103CC02FFFF00000000000000E6
:104AB40000390333031003010038032F03FF0202FC
:104AC4000037032B03EE0204002A032503DD02054D
:104AD4000029032103CC02FFFF0000000000003086
:104AE400313233343536373839616263646566256B
:084AF4006C7500256C640000E4
:00000001FF
